:100000000C943E000C945B000C945B000C945B0021
:100010000C945B000C945B000C945B000C945B00F4
:100020000C945B000C945B000C945B000C945B00E4
:100030000C9482060C945B000C945B000C945D00A5
:100040000C945B000C945B000C945B000C945B00C4
:100050000C9493060C945B000C945B000C94FD04D0
:100060000C94FD040C945B000C945B000C945B00FE
:100070000C945B000C945B000C945B0011241FBE7D
:10008000CFEFD8E0DEBFCDBF11E0A0E0B1E0E8E8FF
:10009000FEE202C005900D92AA30B107D9F711E037
:1000A000AAE0B1E001C01D92A136B107E1F70E94BC
:1000B000740B0C9442170C94000078941F920F92CA
:1000C0000FB60F9211242F923F924F925F926F9230
:1000D0007F928F929F92AF92BF92CF92DF92EF92D8
:1000E000FF920F931F932F933F934F935F936F93C1
:1000F0007F938F939F93AF93BF93EF93FF93CF9390
:10010000DF93CDB7DEB76897DEBFCDBF20914F013B
:1001100080917C00807C8E6080937C0080917A004E
:10012000806480937A0080917A0086FDFCCF809174
:1001300078009091790091FD9C6F332727FD3095D1
:10014000280F391F8091B80085FF03C03095219595
:100150003F4F409156015091570160915801709165
:100160005901DB01CA01880F991FAA1FBB1F880F05
:10017000991FAA1FBB1F880F991FAA1FBB1F880F9B
:10018000991FAA1FBB1F880F991FAA1FBB1F841B83
:10019000950BA60BB70B220F331F22953295307F9C
:1001A0003227207F3227A901662757FD6095762FD9
:1001B000840F951FA61FB71FBC01CD0120E230E0C0
:1001C00040E050E00E94BB16209356013093570147
:1001D000409358015093590180915A018F5F809349
:1001E0005A01843008F472C010925A01F894609158
:1001F0003D0170913E01E0903F01F090400100917F
:1002000041011091420178946115710509F084C093
:10021000AA24BB24BA82A982609156017091570129
:10022000809158019091590120E230E040E050E087
:100230000E94BB1689019A0148011C830B83209000
:100240005B0130905C013E822D8240901D015090F8
:100250001E0140911F015091200180913301888B34
:100260004114510409F07BC010925E0110925D01AF
:100270008091B70080FD34C260E070E080E090E0E3
:1002800000E010E010932C0100932B01E8892E2F41
:1002900030E040E050E00E94BB16C90137FD42C289
:1002A0009595879590932E0180932D015092600132
:1002B00040925F01B0922601A09225019092280100
:1002C0008092270130925C0120925B016896DEBF2C
:1002D000CDBFDF91CF91FF91EF91BF91AF919F91F2
:1002E0008F917F916F915F914F913F912F911F91CE
:1002F0000F91FF90EF90DF90CF90BF90AF909F90C5
:100300008F907F906F905F904F903F902F900F90C5
:100310000FBE0F901F901895F89480914301816053
:100320008093430110923E0110923D0178940E1586
:100330001F0510F40C5D1B40882777FD8095982FD2
:1003400024E234EF40E050E00E9453160E191F09DA
:10035000980140E050E00E94BB1659015BCF6090CD
:10036000210170902201A114B104A1F4C80117FD6C
:10037000E0C26816790674F480915301806180931D
:10038000530140E050E04424552421E030E03A8B12
:10039000298B02C01A8A198A681479040CF498C14E
:1003A0007094619471087394861497040CF4F5C1E9
:1003B0003A0100912301109124010A151B055CF0FC
:1003C000882799278A199B09081719070CF0EDC18E
:1003D000109501951F4F21E030E03A8B298B83E483
:1003E0009EEF9B878A878AEB9EEF9F878E8760911F
:1003F0004E0183E598E170E00E9486167C8B6B8B42
:100400007D876C87B501882777FD8095982F23E439
:100410003EEF4FEF5FEF0E945316AB01BC01380176
:1004200026EF3FEF388F2F8B0AE010E08AEB9EEF2C
:100430009E8B8D8BF3E04F2E512C80915F0190911C
:10044000600148165906C9F1B0925E01A0925D01A3
:1004500080912B0190912C016C01EE24D7FCE0944B
:10046000FE2CEDE0CC0CDD1CEE1CFF1CEA95D1F758
:10047000C41AD50AE60AF70A4B895C89BA018827AB
:1004800077FD8095982F9401442737FD4095542F90
:100490000E945316DC01CB01C81AD90AEA0AFB0AEA
:1004A0008D899E899C01442737FD4095542FC701B3
:1004B000B6010E94BB163E832D8329893A892115F6
:1004C0003105D9F440915D0150915E01C301841B57
:1004D000950B081719070CF4C80122273327281B8E
:1004E000390B0217130714F48F89988D3A01680E9F
:1004F000791E70925E0160925D01A618B7080D81A9
:100500001E810A0D1B1D1E830D836A857B8588272E
:1005100077FD8095982F29813A81442737FD4095B2
:10052000542F0E9453166B017C016C857D858827B2
:1005300077FD8095982F2B813C81442737FD40958E
:10054000542F0E945316DC01CB01C80ED91EEA1E9F
:10055000FB1E6E857F85882777FD8095982F9801F3
:10056000442737FD4095542F0E9453166C0D7D1D76
:100570008E1D9F1D20E030E240E050E00E94BB163F
:1005800089013889E32EFF24EE0CFF1C17FDFBC008
:100590008091B80080628093B800C8012091480122
:1005A00030914901AC01BA01882777FD8095982FD9
:1005B00040E050E00E945316970140E050E00E9456
:1005C000991680914801909149018217930708F08C
:1005D000A6C0209148013091490141E050E030939C
:1005E000450120934401F89480914A0190914B0178
:1005F0006091B80065FD04C08095909587709070FB
:100600006091B50060626093B5008330910509F494
:100610004AC18430910508F087C08130910509F402
:1006200065C18230910511F51092A1001092A000D1
:100630001092A5001092A4003093A7002093A6006A
:100640008091460190914701820F931F9093AB00D8
:100650008093AA001092AD001092AC008091B2007D
:100660009091B3009093B1008093B0008091B50059
:100670008F7D8093B50078944115510519F03E8225
:100680002D8287018091B70080FD0FC08091B70057
:1006900081608093B70080917500887F809375009A
:1006A00080917500866080937500A980BA802D8046
:1006B0003E808B809C80B801882777FD8095982F9D
:1006C0009401442737FD4095542F0E945316DACDEC
:1006D00041E050E05A8B498B12E0412E512C69CEFB
:1006E00080917500887F809375008091750080935C
:1006F00075008091B7008E7F8093B70010924501FE
:1007000010924401A980BA802D803E808B809C800D
:1007100060E070E080E090E000E010E0B3CD40E009
:1007200050E05DCF0196BCCD8530910509F498C0AD
:100730008530910508F471C08630910509F096CF97
:100740001092A1001092A0001092A5001092A40097
:100750001092A7001092A6008091B2009091B30071
:100760009093AB008093AA003093AD002093AC002F
:100770008091460190914701820F931F9093B100A1
:100780008093B00073CF88279927801B910B20910D
:10079000B8002F7D2093B80001CF81E090E09A8BC4
:1007A000898BB2E04B2E512C04CE91E049165104B6
:1007B00009F0D4C0E889EE2EFF24EE0CFF1CB30133
:1007C000882777FD8095982F9701442737FD40951E
:1007D000542F0E9453162FEF31E040E050E00E946A
:1007E000BB1680915F01909160018130910509F401
:1007F000A5C000912B0110912C01C901801B910B08
:10080000823091050CF49FC081E090E0080F191F21
:1008100010935E0100935D01B9CE1092A100109279
:10082000A0008091B2009091B3009093A5008093B6
:10083000A4001092A7001092A6001092AB00109294
:10084000AA003093AD002093AC00809146019091B6
:100850004701820F931F9093B1008093B00006CFA1
:100860003093A1002093A000809146019091470110
:10087000820F931F9093A5008093A4001092A7006D
:100880001092A6001092AB001092AA001092AD0038
:100890001092AC008091B2009091B3009093B1009F
:1008A0008093B000E3CE1092A1001092A00080913E
:1008B000B2009091B3009093A5008093A400309370
:1008C000A7002093A6008091460190914701820FD6
:1008D000931F9093AB008093AA001092AD001092EA
:1008E000AC001092B1001092B000C0CE3093A100C5
:1008F0002093A0008091460190914701820F931FA1
:100900009093A5008093A4001092A7001092A600D7
:100910008091B2009091B3009093AB008093AA00B5
:100920001092AD001092AC001092B1001092B00085
:100930009DCE88279927801B910B1BCD00915D01CF
:1009400010915E015ACF22273327281B390B223002
:1009500031050CF45BCF8FEF9FEF58CF22E04216AA
:10096000510471F585E591E09B878A8720914E01BE
:1009700030E084EB90EDB9010E9486167C8B6B8B86
:100980007D876C878EEA94EBB9010E9486167E8B78
:100990006D8B7F876E87B501882777FD8095982FAF
:1009A00025E531E040E050E00E945316AB01BC0168
:1009B00054018EEF9FEF988F8F8B02E010E03DCDBA
:1009C00093E049165104B9F01B861A861D861C86D1
:1009D0001F861E861C8A1B8A2FEF3FEF388F2F8BB6
:1009E00001E010E01E8A1D8A40E050E060E070E007
:1009F000AA24BB2422CD8301F2CC1F920F920FB602
:100A00000F9211242F933F934F935F936F937F9394
:100A10008F939F93AF93EF93FF93E0918400F091B6
:100A2000850021E030E0369902C020E030E04D99A9
:100A300022603599246040914A0150914B01421740
:100A4000530709F48EC06091440170914501809173
:100A5000B80085FF96C0C901A091B500A062A0931F
:100A6000B5008330910509F49AC08430910558F59A
:100A70008130910509F4CBC08230910509F0BAC0EC
:100A80001092A1001092A0001092A5001092A40054
:100A90007093A7006093A600809146019091470152
:100AA000860F971F9093AB008093AA001092AD0021
:100AB0001092AC008091B2009091B3009093B1007D
:100AC0008093B00026C08530910509F08BC07093EB
:100AD000A1006093A0008091460190914701860F8C
:100AE000971F9093A5008093A4001092A7001092E6
:100AF000A6001092AB001092AA001092AD001092C6
:100B0000AC008091B2009091B3009093B1008093BB
:100B1000B0008091B5008F7D8093B50030934B017C
:100B200020934A018091430180FD94C0F0934201DB
:100B3000E0934101CA019695879596958795440F54
:100B4000551F842B952B82239323009709F48AC089
:100B500080913D0190913E01019690933E018093DA
:100B60003D01FF91EF91AF919F918F917F916F9197
:100B70005F914F913F912F910F900FBE0F901F905B
:100B80001895C9018095909587709070A091B500D7
:100B9000A062A093B5008330910509F066CF109252
:100BA000A1001092A0008091B2009091B3009093A8
:100BB000A5008093A4007093A7006093A600809185
:100BC000460190914701860F971F9093AB00809349
:100BD000AA001092AD001092AC001092B1001092D9
:100BE000B00097CF8530910508F469C08630910533
:100BF00009F442C08091B5008F7D8093B50080914B
:100C0000530180915301886080935301AACF709360
:100C1000A1006093A0008091460190914701860F4A
:100C2000971F9093A5008093A4001092A7001092A4
:100C3000A6008091B2009091B3009093AB00809396
:100C4000AA001092AD001092AC001092B100109268
:100C5000B0005FCFF0934001E0933F018E7F80931F
:100C600043017FCF80913D0190913E010197909388
:100C70003E0180933D0175CF1092A1001092A0001B
:100C80001092A5001092A4001092A7001092A60046
:100C90008091B2009091B3009093AB008093AA0032
:100CA0007093AD006093AC00809146019091470134
:100CB000860F971F9093B1008093B0002ACF1092B7
:100CC000A1001092A0008091B2009091B300909387
:100CD000A5008093A4001092A7001092A600109285
:100CE000AB001092AA007093AD006093AC008091AD
:100CF000460190914701860F971F9093B100809312
:100D0000B00007CF1F920F920FB60F9211248F934E
:100D100080910A018F5F80930A018F910F900FBE1F
:100D20000F901F9018951F920F920FB60F921124DB
:100D30008F939F93EF93FF938091C90080FF0EC024
:100D400080911B01E82FF0E09091D200E55FFE4F0B
:100D500090838F5F803158F480931B01FF91EF9156
:100D60009F918F910F900FBE0F901F90189580E06C
:100D7000F3CFA8E0B0E0EFEBF6E00C94E51692E8D4
:100D800099838A835198499BFECF8DE0982F9A953D
:100D9000F1F7529A8A95F1F7519ADE011196FD0109
:100DA00050E03DE04AE11AE1552309F495C08981FC
:100DB00080FF92C052981A8298E0842F8A95F1F7AA
:100DC0005198499BFECF832F8A95F1F78A81880F2E
:100DD0008A834A9B02C081608A83832F8A95F1F7B8
:100DE000519A915051F75298842F8A95F1F7519862
:100DF000499BFECF842F8A95F1F7519A5F5F319618
:100E0000523091F68DE0982F9A95F1F7529A8A9583
:100E1000F1F75198499BFECF8DE08A95F1F75298F2
:100E200088E0FD0111928A95E9F783E8898351985A
:100E3000499BFECF8DE0982F9A95F1F7529A8A95AB
:100E4000F1F7519AFD0150E03DE04AE1AAE1552356
:100E500009F47BC0898180FF78C052981A8298E09B
:100E6000842F8A95F1F75198499BFECF832F8A955D
:100E7000F1F78A81880F8A834A9B02C081608A8346
:100E8000832F8A95F1F7519A915051F75298842FF8
:100E90008A95F1F75198499BFECF842F8A95F1F7F7
:100EA000519A5F5F3196523091F68DE0982F9A9566
:100EB000F1F7529A8A95F1F75198499BFECF8DE050
:100EC0008A95F1F7529881E09A81FB0190832896E8
:100ED000E3E00C9401176EC0908188E0232F2A95DF
:100EE000F1F797FD30C0529A990F232F2A95F1F709
:100EF0005198499BFECF242F2A95F1F7519A8150A2
:100F000069F75298812F8A95F1F75198499BFECF46
:100F100099B1842F8A95F1F7519A92FF6FCF8DE0A6
:100F2000982F9A95F1F7529A8A95F1F75198499B23
:100F3000FECF8DE08A95F1F7529880E02896E3E0A5
:100F40000C94011737C05298CFCF908188E0232F9F
:100F50002A95F1F797FD2CC0529A990F232F2A95C5
:100F6000F1F75198499BFECF242F2A95F1F7519A1A
:100F7000815069F752988A2F8A95F1F75198499BC9
:100F8000FECF99B1842F8A95F1F7519A92FF89CFBC
:100F90008DE0982F9A95F1F7529A8A95F1F751982A
:100FA000499BFECF8DE08A95F1F7529880E08CCF77
:100FB0005298D3CF0F931F93CF93DF93DC015198B7
:100FC000499BFECF8DE0982F9A95F1F7529A8A951A
:100FD000F1F7519A662309F440C0FD0180E090E0EA
:100FE000CDE0DAE10DE01AE1262F30E0882309F4A4
:100FF00048C04C9140FF45C05298108258E04D2F98
:101000004A95F1F75198499BFECF4C2F4A95F1F73D
:101010004081440F40834A9B02C0416040834C2F73
:101020004A95F1F7519A515051F70196821793075B
:1010300009F44EC0402F4A95F1F7529A402F4A9535
:10104000F1F75198499BFECF4D2F4A95F1F7519AF0
:1010500052983196861708F4C9CF8DE0982F9A954B
:10106000F1F7529A8A95F1F75198499BFECF8DE09E
:101070008A95F1F7529881E0DF91CF911F910F91FE
:101080000895508148E07C2F7A95F1F757FD1EC0F6
:10109000529A550F7C2F7A95F1F75198499BFECFC4
:1010A0007D2F7A95F1F7519A415069F75298412F67
:1010B0004A95F1F75198499BFECF59B14D2F4A956A
:1010C000F1F7519A52FD10C00196C3CF5298E1CF6B
:1010D00052984D2F4A95F1F75198499BFECF4D2FCD
:1010E0004A95F1F7519AB5CF8DE0982F9A95F1F77F
:1010F000529A8A95F1F75198499BFECF8DE08A95D7
:10110000F1F7529880E0DF91CF911F910F910895F0
:10111000342F3F5F2AE2282723279091C90094FDAE
:10112000FCCF9AE29093D2009091C90094FDFCCF3D
:101130003093D2009091C90094FDFCCF8093D200EF
:10114000442381F0FB0190E0DF0130818091C900F0
:1011500084FDFCCF3093D20031968C9128279F5F7D
:10116000941791F720688091C90084FDFCCF2093EB
:10117000D2000895A8E0B0E0E0ECF8E00C94E416AA
:101180008E010F5F1F4F98E0F80111929A95E9F7D1
:1011900089836A83222371F0DA01FE013396CE013E
:1011A0000496322F3150830F911D3D913193E817F2
:1011B000F907D9F7622F6E5FC8010E94DA072896F7
:1011C000E4E00C940017CF93DF93D62F662309F445
:1011D0007CC0462FFC01C0E027E02DC0352F532FE7
:1011E000550F652F622737FD35C0352F330F632F1D
:1011F000622757FD36C0532F550F652F622737FDE5
:1012000037C0352F330F632F622757FD38C0532F58
:10121000550F652F622737FD39C0352F330F632FE8
:10122000622757FD3AC0C32FCC0F5C2F522737FDE2
:101230003BC04150E1F131913C27532F550F652FB1
:10124000622737FFCBCF362F532F550F652F6227DD
:1012500037FFCBCF562F352F330F632F622757FF22
:10126000CACF362F532F550F652F622737FFC9CFAF
:10127000562F352F330F632F622757FFC8CF362FD6
:10128000532F550F652F622737FFC7CF562F352FA6
:10129000330F632F622757FFC6CF362FC32FCC0FD4
:1012A0005C2F522737FFC5CFC52F415021F660E094
:1012B00070E04D2F50E00E9425178D2F90E06C2F8D
:1012C0000E942F17DF91CF910895C0E0F0CF47988B
:1012D0005F9808958FEF60E070E040E00E9488081A
:1012E00028E088E190E00FB6F894A895809360001C
:1012F0000FBE20936000FFCFA8E0B0E0E2E8F9E085
:101300000C94E4168B01823009F4B7C0833009F4E1
:101310007CC0813039F080E090E02896E4E00C94C5
:101320000017E2C1423009F4D4C000914D01109180
:101330004E0160912D0170912E01882777FD8095D7
:10134000982F2FEF31E040E050E00E945316109F9D
:101350009001112440E050E00E94BB1689019A01DF
:101360000030F2E01F07F0E02F07F0E03F070CF439
:10137000A4C08FEF91E020915301298320912F0188
:101380002A83209130012B83209131012C832091DD
:1013900032012D83209133012E839F838887809192
:1013A000C90084FDFCCF8AE28093D2008091C900FD
:1013B00084FDFCCF89E08093D2008091C90084FD38
:1013C000FCCF81E08093D200FE013196CE010996D8
:1013D00032E2DF0140812091C90024FDFCCF40931F
:1013E000D20031962C913227E817F90791F730682F
:1013F0008091C90084FDFCCF3093D20081E090E061
:101400002896E4E00C9400176FC14150473009F46E
:1014100060C1442309F07FCF8091C90084FDFCCFD7
:101420008AE28093D2008091C90084FDFCCF88E0DD
:101430008093D2008091C90084FDFCCF83E080932B
:10144000D200ECE4F1E091E2DF0120818091C9005B
:1014500084FDFCCF2093D20031968C91982781E0B7
:10146000E335F80789F790688091C90084FDFCCFC7
:101470009093D20081E090E050CF433009F04BCF01
:1014800080915301882371F5FB012081422F429501
:10149000469546954370922F80E0218130E0282BBD
:1014A000392BC901937031FD9C6F423009F4B3C0F0
:1014B000433009F4F7C050E01DC001308EEF18072B
:1014C0008FEF28078FEF38070CF0FFC081E09EEF09
:1014D00052CF90915301FB018081809589238093A5
:1014E000530123CF40E050E080E090E043305105CD
:1014F00009F4CFC04230510509F4BFC061E07EEF6E
:101500002FEF31E0821793070CF49C01F89450936D
:101510001E0140931D01261737070CF49B013093E1
:10152000200120931F01789410914D0100914E01EC
:101530006091270170912801882777FD8095982F69
:101540002FEF31E040E050E00E945316019F9001E0
:10155000112440E050E00E94BB1689019A0100303E
:10156000E2E01E07E0E02E07E0E03E070CF08EC050
:101570000130FEEF1F07FFEF2F07FFEF3F070CF0D3
:10158000A6C081E09EEF20912B0130912C01398380
:101590002A839B838C8380912501909126019D83D2
:1015A0008E8380910A018093340180918400909110
:1015B000850090933601809335018091C90084FDA8
:1015C000FCCF8AE28093D2008091C90084FDFCCFD9
:1015D00087E08093D2008091C90084FDFCCF82E037
:1015E0008093D200FE013196CE0107963FE2DF01E3
:1015F00040812091C90024FDFCCF4093D200319658
:101600002C913227E817F90791F730688091C900CB
:1016100084FDFCCFF1CE20914D0130E0289FB00138
:10162000299F700D389F700D1124882777FD8095B4
:10163000982F20914E0130E040E050E00E94531678
:101640002FEF31E040E050E00E94BB1689019A0183
:101650000030F2E01F07F0E02F07F0E03F0784F5CD
:1016600001308EEF18078FEF28078FEF38075CF5F2
:1016700081E09EEF42E050E039CF2091210130918E
:10168000220166277727621B730B3CCF8FEF91E017
:101690007ACF209123013091240166277727621B9E
:1016A000730B30CF9C01220F331F880F991F880FB7
:1016B000991F880F991F820F931F43E050E016CFA8
:1016C0008FEF91E0D7CFC801D5CFC80154CEC80164
:1016D0005ACFCB0167E00E94E30883E0B80147E0FE
:1016E0000E9488080E946A09A3E2B0E0EAE7FBE0F2
:1016F0000C94DA162CE088E190E00FB6F894A895E7
:10170000809360000FBE20936000109253012983E4
:1017100082E861E0AE014F5F5F4F21E00E94BA08AE
:10172000882351F48091530182608093530180910A
:10173000530181608093530181E0898382E863E0F3
:10174000AE014F5F5F4F21E00E94BA08882351F439
:101750008091530182608093530180915301816095
:101760008093530181E0BE016F5F7F4F0E94B906F5
:10177000882311F00C94421680915301826080936B
:10178000530183E0BE016F5F7F4F0E94B90688233B
:1017900011F00C94311680915301826080935301B3
:1017A0008CE491E060E070E047E050E00E940D17AB
:1017B00087E090E00E941D1730914C01232F220FEB
:1017C00097E0922737FF02C00C942E16322F330F6A
:1017D00097E0932727FF02C00C942B16232F220F8C
:1017E00097E0922737FF02C00C942816322F330F50
:1017F00097E0932727FF02C00C942516232F220F72
:1018000097E0922737FF02C00C942216322F330F35
:1018100097E0932727FF02C00C941F16232F220F57
:1018200097E0922737FF02C00C941C16322F330F1B
:1018300097E0932727FF02C00C941916232F90914D
:101840004D019227392F330F27E0232797FF232FAE
:10185000322F330F97E0932727FF02C00C94161600
:10186000232F220F97E0922737FF02C00C94131604
:10187000322F330F97E0932727FF02C00C941016E6
:10188000232F220F97E0922737FF02C00C940D16EA
:10189000322F330F97E0932727FF02C00C940A16CC
:1018A000232F220F97E0922737FF02C00C940716D0
:1018B000322F330F97E0932727FF02C00C940416B2
:1018C000232F90914E019227392F330F27E02327A2
:1018D00097FF232F322F330F97E0932727FF02C064
:1018E0000C940116232F220F97E0922737FF02C096
:1018F0000C94FE15322F330F97E0932727FF02C079
:101900000C94FB15232F220F97E0922737FF02C07C
:101910000C94F815322F330F97E0932727FF02C05E
:101920000C94F515232F220F97E0922737FF02C062
:101930000C94F215322F330F97E0932727FF02C044
:101940000C94EF15232F90914F019227392F330FCD
:1019500027E0232797FF232F322F330F97E093277A
:1019600027FF02C00C94EC15232F220F97E092273B
:1019700037FF02C00C94E915322F330F97E09327FD
:1019800027FF02C00C94E615232F220F97E0922721
:1019900037FF02C00C94E315322F330F97E09327E3
:1019A00027FF02C00C94E015232F220F97E0922707
:1019B00037FF02C00C94DD15322F330F97E09327C9
:1019C00027FF02C00C94DA15232F90915001922723
:1019D000392F330F27E0232797FF232F322F330F81
:1019E00097E0932727FF02C00C94D715232F220FCF
:1019F00097E0922737FF02C00C94D415322F330F93
:101A000097E0932727FF02C00C94D115232F220FB4
:101A100097E0922737FF02C00C94CE15322F330F78
:101A200097E0932727FF02C00C94CB15232F220F9A
:101A300097E0922737FF02C00C94C815322F330F5E
:101A400097E0932727FF02C00C94C515232F909190
:101A500051019227392F330F27E0232797FF232F98
:101A6000322F330F97E0932727FF02C00C94C21543
:101A7000232F220F97E0922737FF02C00C94BF1547
:101A8000322F330F97E0932727FF02C00C94BC1529
:101A9000232F220F97E0922737FF02C00C94B9152D
:101AA000322F330F97E0932727FF02C00C94B6150F
:101AB000232F220F97E0922737FF02C00C94B31513
:101AC000322F330F97E0932727FF02C00C94B015F5
:101AD000232F909152019227392F330F27E023278C
:101AE00097FF232F322F330F97E0932727FF02C052
:101AF0000C94AD15232F220F97E0922737FF02C0D9
:101B00000C94AA15322F330F97E0932727FF02C0BA
:101B10000C94A715232F220F97E0922737FF02C0BE
:101B20000C944F15322F330F97E0932727FF02C0F5
:101B30000C944C15232F220F97E0922737FF02C0F9
:101B40000C942615322F330F97E0932727FF932FFE
:101B50008917C9F089E180934C018AE080934D0197
:101B600080E280934E0110924F018EE180935001EC
:101B700085E5809351018BE4809352018CE491E0E0
:101B800067E00E94E3088091C80080688093C800E5
:101B90008091C80087FDFCCF85E090E09093CE0057
:101BA0008093CD008EEA8093CC008FE08093C800B4
:101BB0008091CA0081608093CA0059985A985198C0
:101BC000529881E080937E0083E080937A00809138
:101BD0007B00876080937B0080917B008062809394
:101BE0007B0080917A00806C80937A0080EC8093F7
:101BF0007C0080917A0086FDFCCF20914C0184E02E
:101C000090E090934701809346011092B700809135
:101C1000B50080628093B50030E040E050E060E8BD
:101C20007EE380E090E00E94BB163093B3002093E7
:101C3000B2008091B2009091B300209146013091A2
:101C40004701821B930B90934901809348018CE1DB
:101C50008093B5008FE38093B60080E590E0909389
:101C6000A9008093A80084E08093B4003E98559822
:101C70003D98469A5D9A459A579A3F9A0E946709FD
:101C800080916B00806680936B0080916C00806215
:101C900080936C0080916800866080936800109249
:101CA0003E0110923D018091430181608093430188
:101CB00021E030E0369902C020E030E04D9922600A
:101CC0003599246080914401909145014091B8007C
:101CD00045FD4AC6A90140955095477050706091E6
:101CE000B50060626093B5004330510509F446C603
:101CF0004430510508F004C64130510509F404C7C9
:101D00004230510509F4DDC68091B5008F7D809386
:101D1000B50010EC1C8388E08D831E8274E0C72E12
:101D2000D12CCC0EDD1EC60163E00E94DA071C83B5
:101D300080E38D831E82C60163E00E94DA0784E699
:101D40008A831B8280E963E0AE014E5F5F4F22E031
:101D50000E94BA08882351F48091530182608093D5
:101D600053018091530181608093530182E38A8300
:101D700080E962E0AE014E5F5F4F22E00E94BA0848
:101D8000882351F4809153018260809353018091A4
:101D9000530181608093530180E98C831D82C601C9
:101DA00062E00E94DA07882351F480915301826037
:101DB000809353018091530181608093530181E0AE
:101DC000898380E961E0AE014F5F5F4F21E00E94AF
:101DD000BA08882329F480915301826080935301CB
:101DE00080E98A831B82CE01029662E00E94DA07B4
:101DF000882329F4809153018260809353013091AC
:101E0000500121E2E5E0F0E020935700849199270A
:101E100087FD90958A52914090933C0180933B01BD
:101E2000E7E0F0E020935700249120933A0184E604
:101E3000389FC001112468EE73E00E947216162FBD
:101E4000BC0180E090E026E030E040E050E00E94FD
:101E50005316109337012AE030E040E050E00E9432
:101E60009916309339012093380183E080938000E4
:101E70008CE18093810084E294EF909389008093B9
:101E8000880080916F00826080936F0086EA809363
:101E9000750080917B00807F886080937B008091BB
:101EA0007E00806280937E0082E084BD97E297BDD1
:101EB00080936E0085E085BD80E699E090932401D3
:101EC0008093230180914E0190E09C01220F331FEB
:101ED000280F391FC901880F991F880F991F880F74
:101EE000991F820F931F880F991F6AE070E00E946C
:101EF000721670932201609321010E946709F89481
:101F000010921E0110921D011092200110921F01CB
:101F1000789478948CE799E09BA38AA31D861C860D
:101F20001E861F8618A219A28091C800806880931F
:101F3000C8008091C80087FDFCCF85E090E09093B9
:101F4000CE008093CD008EEA8093CC008FE080930A
:101F5000C8008091CA0081608093CA0080E066E07A
:101F600071E043E00E94880883E0BE016F5F7F4F0D
:101F70000E94B906882309F05AC5809153018260F6
:101F800080935301198280E961E0AE014F5F5F4F9A
:101F900021E00E94BA08882329F4809153018260CD
:101FA0008093530180E98A831B82CE01029662E00E
:101FB0000E94DA07882329F480915301826080937C
:101FC000530181E0BE016F5F7F4F0E94B9068823F5
:101FD00009F01EC58091530182608093530181E016
:101FE000BE016F5F7F4F0E94B906882309F05AC572
:101FF00080915301826080935301E0E1AE2EB12CB9
:10200000AC0EBD1EFFE08F2E912C8C0E9D1EAAE201
:10201000EA2E1DE00AE1BDE07B2E8AE1F82EA895AC
:102020008091CB0090E0807290702091C90023FFD6
:1020300005C02091C90028602093C900009709F0CD
:10204000E0C080911C0190911B01891709F43EC0EA
:10205000F894E82FF0E0E55FFE4F20818F5F80313C
:1020600008F080E080931C0178948C859D858230F7
:10207000910509F44AC3833091050CF0DEC0009746
:1020800009F0E3C02A3209F47FC39AEC21EE809173
:10209000C90084FDFCCFE092D2008091C90084FD8C
:1020A000FCCF81E08093D2008091C90084FDFCCFF9
:1020B0002093D2008091C90084FDFCCF9093D20080
:1020C0001D861C861E861F8618A219A2209151010A
:1020D0008091520130915501323009F427C23330DA
:1020E00008F0B6C0332329F0313009F4BEC2109293
:1020F0005501F89480917C00807C8B6080937C00FB
:1021000080917A00806480937A0080917A0086FDC5
:10211000FCCF809178009091790080917C00807C48
:102120008B6080937C0080917A00806480937A0039
:1021300080917A0086FDFCCF409178005091790023
:10214000789480913B0190913C01480F591F209158
:102150003A0130E0429FC001439F900D529F900D85
:10216000112497FD01C3880F892F881F990B499669
:1021700080932F018C3491050CF46DC28091530132
:10218000806280935301309155013F5F3093550138
:1021900080915301882351F560910A0120918400B8
:1021A0003091850080913401681B40913501509138
:1021B0003601C9012417350710F48C5D9B40FC01E2
:1021C000E41BF50BAF012E173F0708F46150809117
:1021D0003701861758F0861709F021CF8091380112
:1021E000909139014817590709F019CFF8941092C6
:1021F0001E0110921D011092200110921F0178946F
:102200000ECF8091C90084FDFCCFE092D200809176
:10221000C90084FDFCCF81E08093D2008091C90089
:1022200084FDFCCF83EE8093D2008091C90084FDB1
:10223000FCCF88EC8093D20004CF8330910509F461
:102240007DC28430910509F469C29DEC26EE1FCF52
:10225000343009F444C1343008F421C1353009F078
:1022600046CF82E88A831B825198499BFECF812FFB
:102270008A95F1F7529A812F8A95F1F7519AFE01CA
:10228000329640E0442309F497C08A8180FF94C0CD
:1022900052981B8298E0802F8A95F1F75198499BBC
:1022A000FECF812F8A95F1F78B81880F8B834A9B14
:1022B00002C081608B83812F8A95F1F7519A9150EA
:1022C00051F75298802F8A95F1F75198499BFECF8C
:1022D000802F8A95F1F7519A4F5F3196423091F6EF
:1022E000812F8A95F1F7529A812F8A95F1F75198AB
:1022F000499BFECF812F8A95F1F7529888E0F6012D
:1023000011928A95E9F783E88C835198499BFECF17
:10231000812F8A95F1F7529A812F8A95F1F7519A78
:10232000F60140E0442309F481C08C8180FF7EC027
:1023300052981D8298E0802F8A95F1F75198499B19
:10234000FECF812F8A95F1F78D81880F8D834A9B6F
:1023500002C081608D83812F8A95F1F7519A915047
:1023600051F75298802F8A95F1F75198499BFECFEB
:10237000802F8A95F1F7519A4F5F3196423091F64E
:10238000812F8A95F1F7529A812F8A95F1F751980A
:10239000499BFECF812F8A95F1F752989D8181E06C
:1023A00090FD80E0982F990F990F809153018B7FBA
:1023B000892B80935301E9CE908188E0212F2A95C3
:1023C000F1F797FD31C0529A990F212F2A95F1F715
:1023D0005198499BFECF202F2A95F1F7519A8150B1
:1023E00069F752988F2D8A95F1F75198499BFECF46
:1023F00099B1802F8A95F1F7519A92FF6DCF812F75
:102400008A95F1F7529A812F8A95F1F75198499B55
:10241000FECF812F8A95F1F7529881E09091530178
:10242000926090935301BECF5298CECF908188E0B6
:10243000212F2A95F1F797FD30C0529A990F212F3D
:102440002A95F1F75198499BFECF202F2A95F1F755
:10245000519A815069F752988F2D8A95F1F75198CA
:10246000499BFECF99B1802F8A95F1F7519A92FF3F
:1024700083CF812F8A95F1F7529A812F8A95F1F7B0
:102480005198499BFECF812F8A95F1F752989D81F3
:1024900081E090FFC3CF80E0C1CF5298CFCFF894B6
:1024A00080917C00807C8C6080937C0080917A009D
:1024B000806480937A0080917A0086FDFCCF8091C1
:1024C0007800909179007894880F991F65E070E00A
:1024D0000E948616609332013091550156CEF894D1
:1024E00080917C00807C886080937C0080917A0061
:1024F000806480937A0080917A0086FDFCCF2091E1
:102500007800309179007894C901880F991F880F5D
:10251000991F880F991F821B930B69E170E00E943D
:10252000861660933301309155012FCE88E0F60175
:1025300011928A95E9F781E98C835198499BFECFE6
:10254000812F8A95F1F7529A812F8A95F1F7519A46
:10255000D60180E090E0582F882309F43BC02C81FD
:1025600020FF38C0F601E80FF91F52981C9248E08E
:10257000202F2A95F1F75198499BFECF212F2A95BC
:10258000F1F72081220F20834A9B02C02160208323
:10259000212F2A95F1F7519A415051F7523009F401
:1025A0008FC0272D2A95F1F7529A272D2A95F1F7FA
:1025B0005198499BFECF202F2A95F1F7519A5298B6
:1025C000019611968330910509F485C0582F882310
:1025D00009F0C5CF4C9128E0512F5A95F1F747FDEE
:1025E00038C0529A440F512F5A95F1F75198499B90
:1025F000FECF502F5A95F1F7519A215069F7529812
:102600002F2D2A95F1F75198499BFECF49B1202FE4
:102610002A95F1F7519A42FFD3CF812F8A95F1F78E
:10262000529A812F8A95F1F75198499BFECF812FBD
:102630008A95F1F7529880915301826080935301FB
:102640008FEF80933001809153018F7B80935301F2
:102650009CCD5298C7CF813491050CF064CF809106
:1026600053018F7D809353015ECFF89490917C004D
:10267000907C966090937C0090917A009064909307
:102680007A0090917A0096FDFCCF409178005091AD
:102690007900569547955695479578944093310122
:1026A000222309F459C030E0241735070CF04FC03D
:1026B000809153018068809353013091550165CD1D
:1026C0005298802F8A95F1F75198499BFECF802F21
:1026D0008A95F1F7519A812F8A95F1F7529A812FB5
:1026E0008A95F1F75198499BFECF812F8A95F1F792
:1026F00052988D81809330018B350CF44BC08091C2
:10270000530180648093530140CD2E8789A1822795
:1027100089A383E090E09D878C87D8CC98A19F30D7
:1027200031F1F501E90FF11D20839F5F98A34E85DC
:1027300089A19417F9F0822789A3C8CC2F8789A192
:10274000822789A384E090E09D878C87BFCC90E0AE
:10275000481759070CF0E7CE809153018F7780938B
:1027600053013091550111CD81589F4FFCCC9FEC06
:1027700024EE8DCC8068F401E90FF11D908189175A
:1027800069F09EEC25EE83CC82E090E09D878C87FB
:1027900029A39CCC80350CF456CFF7CC8F858823A9
:1027A00061F18D3F09F480C08F3F09F4A7C08E3FCF
:1027B00009F44EC0EAA1FBA1B5010995009709F003
:1027C0007FCC8091C90084FDFCCFE092D200809143
:1027D000C90084FDFCCF81E08093D2008091C900C4
:1027E00084FDFCCF80EE8093D2008091C90084FDEF
:1027F000FCCF8BEC8093D20063CC8091C90084FD28
:10280000FCCFE092D2008091C90084FDFCCF84E02F
:102810008093D2008091C90084FDFCCF1092D20039
:10282000E6E0F1E09EE2DF0120818091C90084FDB5
:10283000FCCF2093D20031968C91982781E0E9302B
:10284000F80789F790688091C90084FDFCCF36CCE9
:102850008091C90084FDFCCFE092D2008091C90034
:1028600084FDFCCF86E08093D2008091C90084FD76
:10287000FCCF8EEF8093D200E0E0F1E092EDDF013B
:1028800020818091C90084FDFCCF2093D200319635
:102890008C91982781E0E530F80789F7906880915E
:1028A000C90084FDFCCF0ACC6FB6F894F999FECF2D
:1028B0008EEF93E060E27FED0E943D1780E280930F
:1028C00054016FBE8091C90084FDFCCFE092D2001C
:1028D0008091C90084FDFCCF81E08093D20080917B
:1028E000C90084FDFCCF8DEF8093D2008091C90098
:1028F00084FDFCCF86ED8093D200E2CB0E946A0972
:102900004530510509F4A5C04530510508F059C0BE
:102910001092A1001092A0004091B2005091B3001B
:102920005093A5004093A4001092A7001092A60017
:102930001092AB001092AA009093AD008093AC006F
:102940004091460150914701480F591F5093B100E3
:102950004093B0008091B5008F7D8093B500309397
:102960004B0120934A01D5C9A9016091B50060626D
:102970006093B5004330510509F0BAC91092A10027
:102980001092A0004091B2005091B3005093A50066
:102990004093A4009093A7008093A6004091460125
:1029A00050914701480F591F5093AB004093AA0024
:1029B0001092AD001092AC001092B1001092B000D5
:1029C000C9CF4630510509F09FC91092A10010925D
:1029D000A0001092A5001092A4001092A7001092DF
:1029E000A6004091B2005091B3005093AB004093C9
:1029F000AA009093AD008093AC00409146015091A5
:102A00004701480F591F5093B1004093B000A2CF27
:102A100089818B7F898382E861E0AE014F5F5F4FE0
:102A200021E00E94BA08882309F0D9CAD3CA898153
:102A30008260898382E863E0AE014F5F5F4F21E0EF
:102A40000E94BA08882309F09DCA97CA292F0C94BE
:102A5000A20D9093A1008093A00040914601509157
:102A60004701480F591F5093A5004093A4001092AE
:102A7000A7001092A6001092AB001092AA0010922C
:102A8000AD001092AC008091B2009091B300909391
:102A9000B1008093B0005ECF392F0C949A0D292F8E
:102AA0000C94920D8981877F898382E861E0AE0171
:102AB0004F5F5F4F21E00E94BA08882309F498CA4B
:102AC0009CCA1092A1001092A0001092A500109232
:102AD000A4009093A7008093A600409146015091D6
:102AE0004701480F591F5093AB004093AA00109222
:102AF000AD001092AC008091B2009091B300909321
:102B0000B1008093B00026CF9093A1008093A000E5
:102B10004091460150914701480F591F5093A5001D
:102B20004093A4001092A7001092A6008091B200DA
:102B30009091B3009093AB008093AA001092AD00E7
:102B40001092AC001092B1001092B00003CF392F58
:102B50000C948A0D292F0C94820D392F0C947A0D28
:102B6000292F0C94690D292F0C94600D392F0C948A
:102B7000580D292F0C94500D392F0C94480D292FE6
:102B80000C94400D392F0C94380D292F0C94270DDF
:102B9000292F0C941E0D392F0C94160D292F0C94EF
:102BA0000E0D392F0C94060D292F0C94FE0C392F85
:102BB0000C94F60C292F0C94E50C292F0C94DC0CAA
:102BC000392F0C94D40C292F0C94CC0C392F0C9445
:102BD000C40C292F0C94BC0C392F0C94B40C292F45
:102BE0000C94A30C292F0C949A0C392F0C94920C52
:102BF000292F0C948A0C392F0C94820C292F0C94B9
:102C00007A0C392F0C94720C292F0C94610C292FFB
:102C10000C94580C392F0C94500C292F0C94480C00
:102C2000392F0C94400C292F0C94380C392F0C940C
:102C3000300C292F0C941F0C292F0C94160C392FB3
:102C40000C940E0C292F0C94060C392F0C94FE0BAF
:102C5000292F0C94F60B392F0C94EE0B292F0C9482
:102C6000E60B89818D7F898382E863E0AE014F5F47
:102C70005F4F21E00E94BA08882311F00C94D00B1A
:102C80000C94CB0B89818460898382E861E0AE017A
:102C90004F5F5F4F21E00E94BA08882311F00C9427
:102CA000C10B0C94BC0B629FD001739FF001829FFB
:102CB000E00DF11D649FE00DF11D929FF00D839FCB
:102CC000F00D749FF00D659FF00D9927729FB00D68
:102CD000E11DF91F639FB00DE11DF91FBD01CF017B
:102CE00011240895AA1BBB1B51E107C0AA1FBB1FDB
:102CF000A617B70710F0A61BB70B881F991F5A9588
:102D0000A9F780959095BC01CD01089597FB092EF8
:102D100007260AD077FD04D0E5DF06D000201AF49C
:102D2000709561957F4F0895F6F7909581959F4F27
:102D30000895A1E21A2EAA1BBB1BFD010DC0AA1FFC
:102D4000BB1FEE1FFF1FA217B307E407F50720F014
:102D5000A21BB30BE40BF50B661F771F881F991F8F
:102D60001A9469F760957095809590959B01AC01D8
:102D7000BD01CF01089597FB092E05260ED057FD02
:102D800004D0D7DF0AD0001C38F450954095309518
:102D900021953F4F4F4F5F4F0895F6F790958095DF
:102DA000709561957F4F8F4F9F4F08952F923F925F
:102DB0004F925F926F927F928F929F92AF92BF924B
:102DC000CF92DF92EF92FF920F931F93CF93DF93F7
:102DD000CDB7DEB7CA1BDB0B0FB6F894DEBF0FBE54
:102DE000CDBF09942A88398848885F846E847D84A1
:102DF0008C849B84AA84B984C884DF80EE80FD80A3
:102E00000C811B81AA81B981CE0FD11D0FB6F89418
:102E1000DEBF0FBECDBFED010895DC01CB01FC018B
:102E2000F999FECF06C0F2BDE1BDF89A319600B423
:102E30000D9241505040B8F70895F999FECF92BDD8
:102E400081BDF89A992780B50895DC01CB0103C0B4
:102E50002D910E94301741505040D0F70895262FF1
:102E6000F999FECF1FBA92BD81BD20BD0FB6F8946F
:102E7000FA9AF99A0FBE019608950E942F17272FEC
:082E80000C943017F894FFCF09
:0A2E880042524F4F4D0001000000C0
:00000001FF
