:100000000C943E000C945B000C945B000C945B0021
:100010000C945B000C945B000C945B000C945B00F4
:100020000C945B000C945B000C945B000C945B00E4
:100030000C94C1070C945B000C945B000C943D097C
:100040000C945B000C945B000C945B000C945B00C4
:100050000C949B070C945B000C945B000C94D207EF
:100060000C94D2070C945B000C945B000C945B0026
:100070000C945B000C945B000C945B0011241FBE7D
:10008000CFEFD8E0DEBFCDBF11E0A0E0B1E0E0E30C
:10009000F1E302C005900D92AC32B107D9F711E03F
:1000A000ACE2B1E001C01D92A039B107E1F70E94B6
:1000B0008D0D0C9496180C940000342F3F5F9AE23B
:1000C000982793272091C90024FDFCCF2AE2209392
:1000D000D2002091C90024FDFCCF3093D2002091A2
:1000E000C90024FDFCCF8093D200442381F0FB01A2
:1000F000DF0120818091C90084FDFCCF2093D200D4
:1001000031968C9198278E2F861B841788F39068E0
:100110008091C90084FDFCCF9093D2000895FF9296
:100120000F931F93CF93DF938C01CB01442309F4EA
:1001300066C0542FFB01F12C27E02DC03A2FA32FCE
:10014000AA0F6A2F622737FD35C03A2F330F632F6E
:100150006227A7FD36C0A32FAA0F6A2F622737FD9B
:1001600037C03A2F330F632F6227A7FD38C0A32F64
:10017000AA0F6A2F622737FD39C03A2F330F632F3A
:100180006227A7FD3AC0A32FAA0FFA2EF22637FF47
:10019000FA2E5150A9F131913F25A32FAA0F6A2FB2
:1001A000622737FFCBCF362FA32FAA0F6A2F6227E4
:1001B00037FFCBCFA62F3A2F330F632F6227A7FF2E
:1001C000CACF362FA32FAA0F6A2F622737FFC9CFB6
:1001D000A62F3A2F330F632F6227A7FFC8CF362FE2
:1001E000A32FAA0F6A2F622737FFC7CFA62F3A2F58
:1001F000330F632F6227A7FFC6CF362FC4CFF12C52
:10020000C42FD0E0AE01B8010E9479186F2DC8014B
:100210008C0F9D1F0E948318CDB7DEB7E5E00C94CC
:100220003418A1E0B0E0E7E1F1E00C9413185C01B0
:10023000E62EC72EF42ED52E022F10E0A801BC0109
:100240008E2D9C2D29830E946118C501800F911F5E
:100250000E9471182981222309F47DC0B22FEE2D4E
:10026000FC2D40E037E02DC0492F440F542F532779
:1002700097FD36C0942F990F592F532747FD37C04C
:10028000492F440F542F532797FD38C0942F990FAF
:10029000592F532747FD39C0192F110F412F4327DD
:1002A00097FD3AC0A12FAA0F9A2F932717FD3BC0A5
:1002B0009A2F990F492F4327A7FD3CC0492FB150D2
:1002C000E9F1A191A4279A2F990F492F4327A7FF5E
:1002D000CBCF942F492F440F542F532797FFCACFCA
:1002E000452F942F990F592F532747FFC9CF952F8B
:1002F000492F440F542F532797FFC8CF452F942FD2
:10030000990F592F532747FFC7CF952F192F110F3B
:10031000412F432797FFC6CF142FA12FAA0F9A2F43
:10032000932717FFC5CFA92F9A2F990F492F43273E
:10033000A7FFC4CF942F492FB15019F68917C1F0E8
:10034000AE2DBC2DEF2DFD2D81918D938E2F8F190C
:100350008217D0F302C0882359F0422F6E2D7C2DD6
:10036000C5010E948F0080E02196EAE00C942F18CE
:1003700081E0FACF1F93CF93DF93DC015198499925
:1003800010C025E32A95F1F700002FE037E207C0FF
:1003900075E37A95F1F700002150310911F0499B7E
:1003A000F7CF1DE01A95F1F70000529A2DE02A953B
:1003B000F1F70000519A662309F458C0FD0141E0AD
:1003C00050E0D0E0862F90E0DD2319F02C9120FD45
:1003D0009EC0C08178E01DE01A95F1F70000C7FDCE
:1003E0006AC0529ACC0F2DE02A95F1F7000051987F
:1003F000499910C015E31A95F1F700002FE037E294
:1004000007C015E31A95F1F700002150310911F0EA
:10041000499BF7CF1AE11A95F1F700C0519A715034
:10042000D1F652982AE12A95F1F700C051984999DE
:1004300010C075E37A95F1F700002FE037E207C0AE
:1004400075E37A95F1F700002150310911F0499BCD
:10045000F7CF4A9932C07AE17A95F1F700C0519A04
:10046000DF5F4F5F5F4F3196D613AECF8DE08A9539
:10047000F1F70000529ACDE0CA95F1F700005198CB
:1004800049990FC025E32A95F1F700008FE097E224
:1004900006C025E32A95F1F70000019711F0499B6A
:1004A000F8CF1DE01A95F1F70000529881E0DF9136
:1004B000CF911F910895529895CF8AE18A95F1F7CF
:1004C00000C0519ACDE0CA95F1F70000529A1DE0A4
:1004D0001A95F1F70000519849990FC075E37A9584
:1004E000F1F700008FE097E206C0C5E3CA95F1F787
:1004F0000000019711F0499BF8CF8DE08A95F1F744
:100500000000529880E0DF91CF911F91089552989A
:10051000108278E01AE11A95F1F700C051984999D4
:1005200010C025E32A95F1F700002FE037E207C05D
:10053000C5E3CA95F1F700002150310911F0499B3C
:10054000F7CF2DE02A95F1F700002081220F2083BC
:100550004A9B02C0216020831DE01A95F1F700003C
:10056000519A7150B9F64817590719F11DE01A95BB
:10057000F1F70000529A2DE02A95F1F7000051980A
:10058000499910C015E31A95F1F700002FE037E202
:1005900007C0C5E3CA95F1F700002150310911F0F9
:1005A000499BF7CF7AE17A95F1F700C0519A5298BA
:1005B00057CF52982AE12A95F1F700C051984999EE
:1005C0004ACFC5E3CA95F1F700002FE037E208C033
:1005D000C5E3CA95F1F700002150310909F43BCF7A
:1005E000499BF6CF38CFA8E0B0E0E9EFF2E00C94F9
:1005F00019188E010F5F1F4F98E0F80111929A951C
:10060000E9F789836A83222349F0DE011396FA0110
:1006100081918D938E2F841B8217D0F3622F6E5F92
:10062000C8010E94BA012896E4E00C943518A9E0AC
:10063000B0E0EDE1F3E00C9417188B01833009F47E
:10064000B0C108F454C0853009F46CC108F05DC035
:100650004150493009F428C241114FC0EDB6FEB6F1
:1006600049E050E067E070E08E010F5F1F4FC80166
:100670000E9461188091C90084FDFCCF8AE28093BA
:10068000D2008091C90084FDFCCF8AE08093D20023
:100690008091C90084FDFCCF84E08093D200F801F2
:1006A000CE010A9634E2DF0140812091C90024FD89
:1006B000FCCF4093D20031962C913227E817F907EE
:1006C00091F730688091C90084FDFCCF3093D2004F
:1006D0008E2D9F2D0FB6F8949EBF0FBE8DBF21E0CB
:1006E00030E0C9012996E6E00C94331809C2813044
:1006F00009F4C4C0823009F449C020E030E0C901E7
:100700002996E6E00C943318FBC18630B1F74150CE
:10071000493009F4EAC14111F0CFEDB6FEB649E027
:1007200050E06BE170E08E010F5F1F4FC8010E9427
:1007300061188091C90084FDFCCF8AE28093D200C9
:100740008091C90084FDFCCF8AE08093D200809123
:10075000C90084FDFCCF86E08093D200F801CE0171
:100760000A9636E2DF0140812091C90024FDFCCFCA
:100770004093D20031962C913227E817F90791F770
:1007800030688091C90084FDFCCFA0CF433009F0D0
:10079000B4CF80917601882309F442C160E070E013
:1007A00080E090E040E050E020E030E082179307E6
:1007B0000CF49C01F89470934A0160934901C901BB
:1007C000241735070CF4CA0190934C0180934B0118
:1007D0007894809153019091540199838A838091F8
:1007E0004F01909150019B838C8380914D0190919A
:1007F0004E019D838E8380912D01809340018091D5
:1008000084009091850090934201809341018091F2
:10081000C90084FDFCCF8AE28093D2008091C90098
:1008200084FDFCCF87E08093D2008091C90084FDD5
:10083000FCCF82E08093D200FE013196CE01079674
:100840003FE2DF0140812091C90024FDFCCF4093AD
:10085000D20031962C913227E817F90791F73068CA
:100860008091C90084FDFCCF3093D20021E030E0BC
:10087000C9012996E6E00C94331842C1423041F494
:1008800090917601FB018081809589238093760188
:1008900080915501909156012091760129832091F4
:1008A00039012A8320913A012B8320913B012C832B
:1008B00020913E012D8320913F012E839F838887C5
:1008C0008091C90084FDFCCF8AE28093D2008091A0
:1008D000C90084FDFCCF89E08093D2008091C900DB
:1008E00084FDFCCF81E08093D200FE013196CE01E1
:1008F000099632E2DF0140812091C90024FDFCCF3E
:100900004093D20031962C913227E817F90791F7DE
:1009100030688091C90084FDFCCF3093D20021E083
:1009200030E0A6CF4150493009F4D4C04111E5CEA2
:10093000EDB6FEB649E050E061E170E08E010F5F78
:100940001F4FC8010E9461188091C90084FDFCCF2F
:100950008AE28093D2008091C90084FDFCCF8AE0B6
:100960008093D2008091C90084FDFCCF85E0809304
:10097000D200F801CE010A9635E2DF0140812091D4
:10098000C90024FDFCCF4093D20031962C91322730
:10099000E817F90791F730688091C90084FDFCCF12
:1009A00095CE4150463009F48AC04111A6CEEDB62D
:1009B000FEB646E050E060E070E08E010F5F1F4F32
:1009C000C8010E9461188091C90084FDFCCF8AE2B1
:1009D0008093D2008091C90084FDFCCF87E0809392
:1009E000D2008091C90084FDFCCF83E08093D200C7
:1009F000F801CE0107963EE2DF0140812091C90057
:100A000024FDFCCF4093D20031962C913227E81779
:100A1000F90791F730688091C90084FDFCCF56CE6C
:100A2000FB012081422F4295469546954370922FB7
:100A300080E02181BC01622B9B01C901937031FDD3
:100A40009C6F4330D9F0642F70E0423071F0433036
:100A500011F1413009F0A6CE209157013091580193
:100A600044275527421B530BA1CE209160013091A2
:100A7000610144275527421B530B98CE9C01220F3E
:100A8000331F880F991F880F991F880F991F820F96
:100A9000931F63E070E02091690130916A0144275F
:100AA0005527421B530B82CE87E090E00E948F00B7
:100AB00049E0B80184E00E945D000E947B0D80E067
:100AC00090E00E948F0046E0B80183E00E945D0044
:100AD0000E947B0D81E190E00E948F0049E0B80107
:100AE00085E00E945D000E947B0D8BE190E00E94FA
:100AF0008F0049E0B80186E00E945D000E947B0DF6
:100B0000A8E0B0E0E6E8F5E00C941B1892E89983C1
:100B10008A83519849990FC085E38A95F1F70000BF
:100B20008FE097E206C055E35A95F1F70000019770
:100B300011F0499BF8CF2DE02A95F1F70000529A69
:100B40003DE03A95F1F70000519ADE011196FD0162
:100B500040E0442319F0898180FD34C1308128E0D0
:100B60008DE08A95F1F7000037FDFFC0529A330FF0
:100B70005DE05A95F1F70000519849990FC055E38F
:100B80005A95F1F700008FE097E206C055E35A95B9
:100B9000F1F70000019711F0499BF8CF8AE18A959F
:100BA000F1F700C0519A2150D9F652988AE18A95FE
:100BB000F1F700C0519849990FC085E38A95F1F784
:100BC00000008FE097E206C025E32A95F1F70000C8
:100BD000019711F0499BF8CF4A99C9C02AE12A959B
:100BE000F1F700C0519A4F5F3196423009F0B1CF12
:100BF0008DE08A95F1F70000529AEDE0EA95F1F761
:100C00000000519849990FC0F5E3FA95F1F70000FB
:100C10008FE097E206C0F5E3FA95F1F7000001973F
:100C200011F0499BF8CFFDE0FA95F1F700005298DA
:100C300088E0FD0111928A95E9F783E8898351984C
:100C400049990FC0E5E3EA95F1F700008FE097E2DC
:100C500006C055E35A95F1F70000019711F0499B42
:100C6000F8CF2DE02A95F1F70000529A3DE03A9531
:100C7000F1F70000519AFD0140E0442319F0898109
:100C800080FD11C1308128E08DE08A95F1F70000E8
:100C900037FDE0C0529A330F5DE05A95F1F700003E
:100CA000519849990FC085E38A95F1F700008FE0CC
:100CB00097E206C055E35A95F1F70000019711F04D
:100CC000499BF8CF8AE18A95F1F700C0519A2150EB
:100CD000D9F652988AE18A95F1F700C0519849995E
:100CE0000FC055E35A95F1F700008FE097E206C078
:100CF00025E32A95F1F70000019711F0499BF8CF01
:100D00004A99AAC02AE12A95F1F700C0519A4F5F8B
:100D10003196423009F0B1CF8DE08A95F1F70000AD
:100D2000529AEDE0EA95F1F70000519849990FC009
:100D3000E5E3EA95F1F700008FE097E206C025E3CE
:100D40002A95F1F70000019711F0499BF8CFFDE0DB
:100D5000FA95F1F70000529881E09A81FB019083A7
:100D60002896E2E00C943718E6C0529800CF3AE19A
:100D70003A95F1F700C0519A5DE05A95F1F70000FD
:100D8000529A8DE08A95F1F70000519849990FC069
:100D900025E32A95F1F700008FE097E206C055E3BE
:100DA0005A95F1F70000019711F0499BF8CF3DE00B
:100DB0003A95F1F70000529880E02896E2E00C9412
:100DC0003718B9C052981A8228E08AE18A95F1F75B
:100DD00000C0519849990FC055E35A95F1F70000AA
:100DE0008FE097E206C055E35A95F1F700000197AE
:100DF00011F0499BF8CF3DE03A95F1F700008A8168
:100E0000880F8A834A9B02C081608A838DE08A951D
:100E1000F1F70000519A2150C1F652982AE12A9523
:100E2000F1F700C0519849990FC035E33A95F1F7B1
:100E300000008FE097E206C055E35A95F1F70000F5
:100E4000019711F0499BF8CF3AE13A95F1F700C0CC
:100E5000519AC9CE52981FCF3AE13A95F1F700C0A6
:100E6000519A5DE05A95F1F70000529A8DE08A950B
:100E7000F1F70000519849990FC0F5E3FA95F1F7A1
:100E800000008FE097E206C055E35A95F1F70000A5
:100E9000019711F0499BF8CF3DE03A95F1F700003A
:100EA000529880E05ACF52981A8228E08AE18A95B7
:100EB000F1F700C0519849990FC035E33A95F1F721
:100EC00000008FE097E206C055E35A95F1F7000065
:100ED000019711F0499BF8CF3DE03A95F1F70000FA
:100EE0008A81880F8A834A9B02C081608A838DE051
:100EF0008A95F1F70000519A2150C1F652982AE1E3
:100F00002A95F1F700C0519849990FC025E32A9519
:100F1000F1F700008FE097E206C055E35A95F1F72C
:100F20000000019711F0499BF8CF3AE13A95F1F7AB
:100F300000C0519AECCE1F920F920FB60F9211245F
:100F40008F939F93EF93FF938091C90080FF0EC012
:100F500080918701E82FF0E09091D200E958FE4F90
:100F600090838F5F803158F480938701FF91EF91D8
:100F70009F918F910F900FBE0F901F90189580E05A
:100F8000F3CF1F920F920FB60F9211248F9380917F
:100F90002D018F5F80932D018F910F900FBE0F90C9
:100FA0001F9018951F920F920FB60F9211242F9336
:100FB0003F934F935F936F937F938F939F93AF93E1
:100FC000EF93FF93E0918400F091850026B126FB1A
:100FD000882780F990E04D9982603599846040912E
:100FE0007401509175014817590709F486C0609142
:100FF0007201709173012091B80025FF8EC09C0191
:10100000A091B500A062A093B5002330310509F48A
:1010100092C02430310538F52130310509F4BEC0C5
:101020002230310509F0ADC01092A1001092A0004D
:101030001092A5001092A4007093A7006093A600E0
:101040006C5F7F4F7093AB006093AA001092AD006D
:101050001092AC002091B2003091B3003093B100F7
:101060002093B00022C02530310509F083C0709371
:10107000A1006093A0006C5F7F4F7093A500609308
:10108000A4001092A7001092A6001092AB0010923C
:10109000AA001092AD001092AC002091B2003091E5
:1010A000B3003093B1002093B0002091B5002F7DA4
:1010B0002093B500909375018093740120918F0166
:1010C00020FD8BC0F0938E01E0938D019A0136953F
:1010D000279536952795440F551F242B352B28230C
:1010E0003923232B09F4BFC08091890190918A0193
:1010F000019690938A0180938901FF91EF91AF91BE
:101100009F918F917F916F915F914F913F912F911F
:101110000F900FBE0F901F9018959C012095309551
:1011200027703327A091B500A062A093B5002330AB
:10113000310509F06ECF1092A1001092A00020910D
:10114000B2003091B3003093A5002093A4007093B7
:10115000A7006093A6006C5F7F4F7093AB00609315
:10116000AA001092AD001092AC001092B100109243
:10117000B0009BCF2530310508F456C0263031052C
:10118000A1F18091B5008F7D8093B50080917601AB
:1011900080917601886080937601AFCF7093A10033
:1011A0006093A0006C5F7F4F7093A5006093A400D4
:1011B0001092A7001092A6002091B2003091B300C7
:1011C0003093AB002093AA001092AD001092AC00B7
:1011D0001092B1001092B00068CFF0938C01E093B0
:1011E0008B012E7F20938F0188CF1092A100109247
:1011F000A0001092A5001092A4001092A7001092D7
:10120000A6002091B2003091B3003093AB00209340
:10121000AA007093AD006093AC006C5F7F4F709339
:10122000B1006093B00041CF1092A1001092A000D5
:101230002091B2003091B3003093A5002093A40018
:101240001092A7001092A6001092AB001092AA0074
:101250007093AD006093AC006C5F7F4F7093B100F2
:101260006093B00022CF8091890190918A0101970B
:1012700090938A018093890140CF78941F920F92B6
:101280000FB60F9211242F923F924F925F926F925E
:101290007F928F929F92AF92BF92CF92DF92EF9206
:1012A000FF920F931F932F933F934F935F936F93EF
:1012B0007F938F939F93AF93BF93EF93FF93CF93BE
:1012C000DF93CDB7DEB72997F894DEBF7894CDBF12
:1012D00080917C00807C8E6080937C0080917A007D
:1012E000806480937A0080917A0086FDFCCF209103
:1012F00078003091790031FD3C6F80912C01280FEE
:10130000311D87FD3A958091B80085FF03C0319566
:101310002195310940912E0150912F0160913001AA
:1013200070913101DB01CA01880F991FAA1FBB1FF1
:10133000880F991FAA1FBB1F880F991FAA1FBB1FC9
:10134000880F991FAA1FBB1F880F991FAA1FBB1FB9
:10135000841B950BA60BB70BA901440F551F429593
:101360005295507F5427407F5427662757FD60953C
:10137000762F840F951FA61FB71FB7FDD8C115E0A4
:10138000B595A795979587951A95D1F780932E01D6
:1013900090932F01A0933001B093310180913201DD
:1013A0008F5F843058F58093320129960FB6F894F8
:1013B000DEBF0FBECDBFDF91CF91FF91EF91BF9107
:1013C000AF919F918F917F916F915F914F913F91DD
:1013D0002F911F910F91FF90EF90DF90CF90BF90D2
:1013E000AF909F908F907F906F905F904F903F90C5
:1013F0002F900F900FBE0F901F90189510923201F2
:10140000F894A0918901B0918A01E0918B01F0914B
:101410008C0140918D0150918E017894109709F4C0
:101420008AC1F89480918F01816080938F0110921E
:101430008A011092890178944E175F0710F44C5D71
:101440005B4024E234EF0E94AA179A012E1B3F0B47
:1014500040E050E00E94EF17D90130934E012093F5
:101460004D0140912E0150912F01609130017091FA
:10147000310177FDE0C18A019B01F5E035952795A3
:1014800017950795FA95D1F7A8011093500100938D
:101490004F012091490130914A0139872887809175
:1014A0004B0190914C0130913F013983E885F985DA
:1014B000EF2B09F488C1109709F46DC120916001E8
:1014C00030916101212C312C241735070CF4B8C15F
:1014D000319521953109421753070CF4F0C19C0155
:1014E000E0906901F0906A01EA16FB065CF088273B
:1014F00099278A1B9B0BE816F9060CF0EBC1F194B7
:10150000E194F108BB83AA8323E030E03987288780
:1015100022242394312C09E611E080913501909129
:1015200036012817390709F44EC2EA81FB81F0938E
:101530003401E093330180915301909154014C01A7
:10154000AA2497FCA094BA2C9DE0880C991CAA1C94
:10155000BB1C9A95D1F7F801238134812D016624B3
:1015600057FC6094762C0E949617861A970AA80A50
:10157000B90A25813681CA01AA2797FDA095BA2FFD
:101580008C839D83AE83BF83DA010E949617861AEF
:10159000970AA80AB90A27813085442737FD409564
:1015A000542FC501B4010E94EF1769013093520115
:1015B000209351012328E1F420913301309134012B
:1015C000D80112968C9190E0E21AF30A8E159F05CD
:1015D0000CF4B4C1442755274E195F0984179507A9
:1015E0000CF4A7C1E20EF31EF0923401E092330135
:1015F000EA81FB81EE19FF097F01EC0CFD1CF092E2
:101600005201E0925101D80113968D919C9114974B
:10161000DC01A30192010E94B1172B013C01F801EA
:1016200085819681DC012C813D814E815F810E9404
:10163000B117460E571E681E791E27813085D701C7
:101640000E949617460E571E681E791E77FCCEC163
:10165000BDE07594679457944794BA95D1F7298162
:10166000022F10E0000F111F57FC1FC18091B8001E
:1016700080628093B800D20126E031E00E94AA1770
:101680009801442737FD4095542F0E94CD172730ED
:1016900081E0380708F4DCC026E031E041E050E0AA
:1016A0003093730120937201F894809174019091AA
:1016B00075016091B80065FD04C0809590958770B4
:1016C00099276091B50060626093B5008330910501
:1016D00009F4D1C108F0BFC08130910509F4ACC153
:1016E000029709F451C18091B5008F7D8093B500B8
:1016F0007894452B29F0D0925201C09251012801D3
:101700008091B70081608093B70080917500887FD9
:101710008093750080917500866080937500A0911C
:101720004F01B091500192010E94961769C04F96E7
:10173000A11DB11D24CE10924E0110924D01809139
:101740002E0190912F01A0913001B0913101B7FF8E
:1017500003C04F96A11DB11DE5E0B595A7959795DE
:101760008795EA95D1F7AC019093500180934F0192
:101770008091490190914A019987888780914B0116
:1017800090914C01A0913F01A983E885F985EF2B49
:10179000D1F0A0E0B0E02091600130916101BA0188
:1017A00057FD88C1261737070CF091C0809176014C
:1017B00080618093760122242394312C80E090E094
:1017C0001986188681CE10923401109233018091CF
:1017D0007500887F809375008091750080937500F7
:1017E0008091B7008E7F8093B700109273011092A2
:1017F000720160E070E0CB0119861886412C512CF3
:101800005092540140925301A9812A2F30E040E0C8
:1018100050E00E94EF17C90137FD45C095958795A7
:101820009093560180935501E885F985F093360130
:10183000E0933501BACD415E5F4F6F4F7F4F1BCEB6
:1018400022242394312C82E090E09987888748CE27
:1018500040E050E025CF8530910509F4CEC008F472
:101860006FC0069709F03FCF1092A1001092A00020
:101870001092A5001092A4001092A7001092A6004A
:101880008091B2009091B3009093AB008093AA0036
:101890003093AD002093AC002C5F3F4F3093B100EC
:1018A0002093B00020CF0196B9CFAA27BB27A41957
:1018B000B5098091B8008F7D8093B800DDCE2224D9
:1018C0002394312CE2E0F0E0F987E88709CE212C5F
:1018D000312CFACD888599858130910509F0F9C0C0
:1018E0009981092F10E0000F111FD8010E9496174F
:1018F0002FEF31E040E050E00E94EF17809135017A
:10190000909136010197D9F14090530150905401C4
:1019100024193509223031050CF4D1C021E030E022
:10192000420E531E5092340140923301C12CD12CEF
:101930009BCEEE24FF24E81AF90A54CE7C014ACE4D
:101940001092A1001092A0008091B2009091B3007B
:101950009093A5008093A4001092A7001092A60077
:101960001092AB001092AA003093AD002093AC000F
:101970002C5F3F4F3093B1002093B000B4CE409025
:10198000330150903401C4CF1092A1001092A000F6
:101990001092A5001092A4003093A7002093A600F7
:1019A0002C5F3F4F3093AB002093AA001092AD0004
:1019B0001092AC008091B2009091B3009093B1006E
:1019C0008093B00090CEC0905101D09052012D0173
:1019D000662457FC6094762CCA01AA2797FDA0952F
:1019E000BA2F8C839D83AE83BF83E4CDFFEF4F0E70
:1019F000FFE15F1E611C711C2BCE3093A100209370
:101A0000A0002C5F3F4F3093A5002093A4001092BC
:101A1000A7001092A6001092AB001092AA0010929C
:101A2000AD001092AC008091B2009091B300909301
:101A3000B1008093B00057CE3093A1002093A00056
:101A40002C5F3F4F3093A5002093A4001092A70075
:101A50001092A6008091B2009091B3009093AB00D9
:101A60008093AA001092AD001092AC001092B100C9
:101A70001092B00038CE1092A1001092A000809178
:101A8000B2009091B3009093A5008093A40030938E
:101A9000A7002093A6002C5F3F4F3093AB0020930C
:101AA000AA001092AD001092AC001092B1001092FA
:101AB000B00019CE66277727641B750B73CE882775
:101AC0009927821B930B02970CF42ACF2FEF3FEF3D
:101AD00027CF79018230910539F45B834A8300E690
:101AE00011E02885398519CDBB83AA8309E611E069
:101AF0002885398512CD40E060E070E08FEF0E94CC
:101B00005D0028E088E190E00FB6F894A8958093F6
:101B100060000FBE20936000FFCFAAE6B0E0E3E9CB
:101B2000FDE00C940B182CE088E190E00FB6F894DF
:101B3000A895809360000FBE2093600010927601FC
:101B40005198529859985A98AB962FAFAB9721E07D
:101B5000AE0146595F4F61E082E80E94F3028111B5
:101B60000AC080917601826080937601809176012F
:101B700081608093760181E0AB968FAFAB9721E0D7
:101B8000AE0146595F4F63E082E80E94F302811183
:101B90000AC08091760182608093760180917601FF
:101BA000816080937601BE0166597F4F81E00E947B
:101BB0008005811147C38091760182608093760110
:101BC000BE0166597F4F83E00E94800581114CC39E
:101BD0008091760182608093760130ECF32EF98259
:101BE00088E08A831B8263E0CE0101960E94BA01DD
:101BF000F98280E38A831B8263E0CE0101960E9412
:101C0000BA018091C80080688093C8008091C800A4
:101C100087FDFCCF85E090E09093CE008093CD00CF
:101C20008EEA8093CC008FE08093C8008091CA0038
:101C300081608093CA0081E080937E0083E080937E
:101C40007A0080917B00876080937B0080917B008D
:101C5000806280937B0080917A00806C80937A0010
:101C600080EC80937C0080917A0086FDFCCF1092FE
:101C7000B7008091B50080628093B5008AE091E062
:101C80009093B3008093B2008CE18093B5008FE312
:101C90008093B60080E590E09093A9008093A8001F
:101CA00084E08093B4003E9855983D98469A5D9A9A
:101CB000459A579A3F9A47985F9880916B00806643
:101CC00080936B0080916C00806280936C008091A7
:101CD000680086608093680010928A0110928901E2
:101CE00080918F01816080938F0186B186FB0027F0
:101CF00000F910E04D9902603599046080917201FD
:101D0000909173012091B80025FF02C00C946A16CF
:101D1000980120953095277033274091B500406297
:101D20004093B5002330310509F4B6C708F08CC7DD
:101D30002130310509F46AC72230310509F4A6C201
:101D40008091B5008F7D8093B50083E08093800003
:101D50008CE18093810084E294EF909389008093DA
:101D6000880080916F00826080936F0026E04EE1D2
:101D700051E0BE016C597F4F80E090E00E9411015C
:101D8000A8961FADA897A7960FADA797A6964FAD9B
:101D9000A69721E2E5E0F0E020935700849199278F
:101DA00087FD90958A529140909348018093470116
:101DB000E7E0F0E02093570024912093460124E6C9
:101DC000429FA00111249A013695279536952795B3
:101DD00036952795A5ECB0E20E949E17FC019C0168
:101DE000329522952F7023273F70232768EE73E0EA
:101DF000269FC001279F900D369F900D11249A01B8
:101E0000281B390B6901E12CF12CC701B601660FC3
:101E1000771F881F991F6C0D7D1D8E1D9F1D660FDE
:101E2000771F881F991FF295E295EF70EF27FF70DB
:101E3000EF27E09343012AE030E040E050E00E94C9
:101E4000CD17309345012093440100933C0110933A
:101E50003D01AA96FFACAA978E01075B1F4FA9967A
:101E60008FADA997D8018C9311961C9222E0A801FE
:101E700063E080E90E94F30281110AC0809176013B
:101E800082608093760180917601816080937601F3
:101E9000F801F08222E0A80162E080E90E94F302EA
:101EA00081110AC0809176018260809376018091D1
:101EB000760181608093760180E989831A8262E0ED
:101EC000CE0101960E94BA0181110AC0809176016B
:101ED00082608093760180917601816080937601A3
:101EE000A5968FADA59780932C0186EA8093750007
:101EF00080917B00807F886080937B0080917E0052
:101F0000806280937E0029E045E151E0BE01655A80
:101F10007F4F87E090E00E94110129E04CE051E002
:101F2000BE016E5A7F4F81E190E00E94110129E0CD
:101F300043E051E0B8018BE190E00E94110182E0A2
:101F400084BD9EE497BD80936E0085E085BD89E0E9
:101F5000FE01E55AFF4FA7E5B1E001900D928A9589
:101F6000E1F789E0FE01EE5AFF4FA0E6B1E00190F3
:101F70000D928A95E1F789E0F801A9E6B1E00190B8
:101F80000D928A95E1F747985F98F89410924A016C
:101F90001092490110924C0110924B017894789460
:101FA00087E193E029969FAF8EAF29971A82198215
:101FB0001B821C8226961FAE269727961FAE279758
:101FC0008091C80080688093C8008091C80087FD18
:101FD000FCCF85E090E09093CE008093CD008EEA18
:101FE0008093CC008FE08093C8008091CA0081600C
:101FF0008093CA0043E060E071E080E00E945D00F1
:10200000BE0166597F4F83E00E9480058111B3C6EF
:1020100080917601826080937601BE0166597F4F80
:1020200081E00E948005811194C6809176018260D2
:1020300080937601AB961FAEAB9721E0AE01465977
:102040005F4F61E080E90E94F302811105C0809139
:10205000760182608093760180E9D8018C93119695
:102060001C9262E0C8010E94BA01811105C08091F2
:102070007601826080937601BE0166597F4F81E0D0
:102080000E948005811189C68091760182608093CB
:102090007601E5E0EE2EF12CEC0EFD1EF4E0CF2EE5
:1020A000D12CCC0EDD1EAAE29A2EBB24B394B3EE43
:1020B0002B2E88EC382E93E0492E512C24E0622EF2
:1020C000712C38E0A32EA8958091CB00807290915E
:1020D000C90093FF05C09091C90098609093C90012
:1020E0008111FBC08091880190918701891709F4C3
:1020F0003FC0F894E82FF0E0E958FE4F20818F5F51
:10210000803108F080E080938801789489819A81F9
:102110008230910509F423C50CF0F8C0892B09F031
:10212000FCC02A3209F45CC591EE8AEC2091C9000A
:1021300024FDFCCF9092D2002091C90024FDFCCF59
:10214000B092D2002091C90024FDFCCF9093D20020
:102150009091C90094FDFCCF8093D2001A8219821D
:102160001B821C8226961FAE269727961FAE2797A6
:1021700080913801823009F47FC308F0D1C08823F0
:1021800029F0813009F474C410923801F8948091D8
:102190007C00807C8B6080937C0080917A008064DE
:1021A00080937A0080917A0086FDFCCF8091780040
:1021B0009091790080917C00807C8B6080937C0082
:1021C00080917A00806480937A0080917A0086FD05
:1021D000FCCF20917800309179007894809147016C
:1021E00090914801280F391F40914601429FC0013C
:1021F000439F900D112497FDE7C4880F892F881FF6
:10220000990B4996809339018C3491050CF498C24E
:1022100080917601806280937601809138018F5F92
:102220008093380180917601882309F436C2F894AE
:1022300010924A011092490110924C0110924B01E8
:10224000789441CFAB968FADAB978460AB968FAF50
:10225000AB9721E0AE0146595F4F61E082E80E94F2
:10226000F3028111ADCCA7CCAB968FADAB978D7F30
:10227000AB968FAFAB9721E0AE0146595F4F63E05D
:1022800082E80E94F3028111A8CCA2CC1092A10096
:102290001092A0001092A5001092A4009093A700A5
:1022A0008093A60004969093AB008093AA001092AE
:1022B000AD001092AC008091B2009091B300909369
:1022C000B1008093B0008091B5008F7D8093B50000
:1022D000109375010093740138CD8091C90084FD7D
:1022E000FCCF9092D2008091C90084FDFCCFB092C7
:1022F000D2008091C90084FDFCCF2092D200809151
:10230000C90084FDFCCF3092D200ECCE8330910521
:1023100009F449C4049709F42DC496EE8DEC06CF58
:10232000843009F484C208F464C2853009F02CCFEB
:1023300082E8D8018C9311961C92519849990FC04C
:10234000B5E3BA95F1F700008FE097E206C0F5E338
:10235000FA95F1F70000019711F0499BF8CFBDE025
:10236000BA95F1F70000529AEDE0EA95F1F7000016
:10237000519AF80140E0442321F0D8018C9180FD6E
:102380003DC1908188E0ADE0AA95F1F7000097FD8E
:1023900005C1529A990FBDE0BA95F1F70000519826
:1023A000499910C0A5E3AA95F1F700002FE037E2A4
:1023B00007C055E35A95F1F700002150310911F09B
:1023C000499BF7CF2AE12A95F1F700C0519A815035
:1023D000D1F652988AE18A95F1F700C0519849994F
:1023E0000FC055E35A95F1F700008FE097E206C061
:1023F000A5E3AA95F1F70000019711F0499BF8CFEA
:102400004A99D0C0AAE1AA95F1F700C0519A4F5F4E
:102410003196423009F0AFCFFDE0FA95F1F70000B8
:10242000529A2DE02A95F1F70000519849990FC072
:10243000B5E3BA95F1F700008FE097E206C0B5E387
:10244000BA95F1F70000019711F0499BF8CF3DE0F4
:102450003A95F1F700005298D801EA2D1D92EA95BD
:10246000E9F783E8D8018C93519849990FC0A5E307
:10247000AA95F1F700008FE097E206C025E32A95C0
:10248000F1F70000019711F0499BF8CFEDE0EA95D4
:10249000F1F70000529AFDE0FA95F1F70000519A29
:1024A000F80140E0442321F0D8018C9180FD52C115
:1024B000308128E08DE08A95F1F7000037FD70C08B
:1024C000529A330FADE0AA95F1F70000519849995F
:1024D0000FC085E38A95F1F700008FE097E206C010
:1024E00055E35A95F1F70000019711F0499BF8CF99
:1024F000BAE1BA95F1F700C0519A2150D9F6529835
:102500008AE18A95F1F700C0519849990FC055E3C7
:102510005A95F1F700008FE097E206C0A5E3AA956F
:10252000F1F70000019711F0499BF8CF4A99DEC0FE
:102530002AE12A95F1F700C0519A4F5F3196423057
:1025400009F0B0CF2DE02A95F1F70000529A3DE056
:102550003A95F1F70000519849990FC0B5E3BA9543
:10256000F1F700008FE097E206C0B5E3BA95F1F706
:102570000000019711F0499BF8CF5DE05A95F1F703
:1025800000005298D80111968C9181708B25909102
:10259000760180FB92F9909376013FCE5298FACE65
:1025A00052988FCFBAE1BA95F1F700C0519AEDE099
:1025B000EA95F1F70000529AFDE0FA95F1F7000074
:1025C000519849990FC0E5E3EA95F1F700008FE0D3
:1025D00097E206C0E5E3EA95F1F70000019711F0F4
:1025E000499BF8CFBDE0BA95F1F70000529881E021
:1025F00090917601926090937601C9CF529811968E
:102600001C9228E0BAE1BA95F1F700C051984999B7
:102610000FC035E33A95F1F700008FE097E206C06E
:10262000B5E3BA95F1F70000019711F0499BF8CF97
:102630003DE03A95F1F70000D80111968C91119781
:10264000880F11968C934A9B04C08160D801119623
:102650008C93BDE0BA95F1F70000519A215091F6A4
:1026600052982AE12A95F1F700C0519849990FC074
:1026700025E32A95F1F700008FE097E206C055E3C5
:102680005A95F1F70000019711F0499BF8CF3AE114
:102690003A95F1F700C0519ABACE60912D01809120
:1026A00084009091850020914001621B409141017E
:1026B000509142019C018417950710F42C5D3B401A
:1026C000241B350B8217930708F461508091430156
:1026D000861708F4ACCD8613F6CC80914401909116
:1026E00045012817390709F0EECCA1CD3AE13A951A
:1026F000F1F700C0519A5DE05A95F1F70000529A47
:102700008DE08A95F1F70000519849990FC0E5E3F3
:10271000EA95F1F700008FE097E206C0F5E3FA953D
:10272000F1F70000019711F0499BF8CFBDE0BA9591
:10273000F1F700005298F801818181708B2558CF04
:10274000813491050CF069CD809176018F7D809365
:10275000760163CD529811961C9228E0BAE1BA95A1
:10276000F1F700C0519849990FC035E33A95F1F758
:1027700000008FE097E206C0B5E3BA95F1F70000DC
:10278000019711F0499BF8CF3DE03A95F1F7000031
:10279000D80111968C911197880F11968C934A9BB2
:1027A00004C08160D80111968C93BDE0BA95F1F711
:1027B0000000519A215091F652982AE12A95F1F79A
:1027C00000C0519849990FC025E32A95F1F7000000
:1027D0008FE097E206C055E35A95F1F700000197A4
:1027E00011F0499BF8CF3AE13A95F1F700C0519AC0
:1027F000A4CEF89480917C00807C8C6080937C00D7
:1028000080917A00806480937A0080917A0086FDBE
:10281000FCCF80917800909179007894880F991F6F
:1028200065E070E00E94B91760933E01F6CCF89421
:1028300080917C00807C886080937C0080917A000D
:10284000806480937A0080917A0086FDFCCF20918D
:102850007800309179007894C901880F991F880F0A
:10286000991F880F991F821B930B69E170E00E94EA
:10287000B91760933F01D1CCD801EA2D1D92EA959A
:10288000E9F781E9D8018C93519849990FC0A5E3E4
:10289000AA95F1F700008FE097E206C0F5E3FA95FC
:1028A000F1F70000019711F0499BF8CFBDE0BA9510
:1028B000F1F70000529AEDE0EA95F1F70000519A25
:1028C000F80140E0442321F0D8018C9180FD80C0C4
:1028D000308128E0BDE0BA95F1F7000037FD43C034
:1028E000529A330F5DE05A95F1F7000051984999DB
:1028F0000FC085E38A95F1F700008FE097E206C0EC
:10290000A5E3AA95F1F70000019711F0499BF8CFD4
:102910008AE18A95F1F700C0519A2150D9F6529870
:10292000BAE1BA95F1F700C0519849990FC055E343
:102930005A95F1F700008FE097E206C025E32A954B
:10294000F1F70000019711F0499BF8CF4A990DC0AB
:102950002AE12A95F1F700C0519A4F5F3196433032
:1029600009F0B0CFD2C05298BCCF3AE13A95F1F716
:1029700000C0519A5DE05A95F1F70000529A8DE03F
:102980008A95F1F70000519849990FC0B5E3BA95BF
:10299000F1F700008FE097E206C055E35A95F1F792
:1029A0000000019711F0499BF8CF3DE03A95F1F70F
:1029B00000005298809176018260809376018FEFBB
:1029C00080933A01809176018F7B8093760125CCAC
:1029D0005298108228E0BAE1BA95F1F700C05198F8
:1029E00049990FC035E33A95F1F700008FE097E27F
:1029F00006C055E35A95F1F70000019711F0499B85
:102A0000F8CF3DE03A95F1F700008081880F808390
:102A10004A9B02C0816080838DE08A95F1F70000B7
:102A2000519A2150C1F6423009F453C02DE02A9545
:102A3000F1F70000529A3DE03A95F1F70000519805
:102A400049990FC025E32A95F1F700008FE097E23E
:102A500006C0A5E3AA95F1F70000019711F0499B84
:102A6000F8CF5AE15A95F1F700C0519A529875CFB4
:102A7000F89480917C00807C866080937C008091BB
:102A80007A00806480937A0080917A0086FDFCCF82
:102A90008091780090917900969587959695879585
:102AA000789480933B0120913C01222361F030E037
:102AB000281739070CF48EC020913D0130E08217B1
:102AC00093070CF0AACB809176018F7780937601E3
:102AD000A4CB5298AAE1AA95F1F700C05198499960
:102AE0000FC0E5E3EA95F1F700008FE097E206C03A
:102AF000E5E3EA95F1F70000019711F0499BF8CF63
:102B0000BAE1BA95F1F700C0519A8DE08A95F1F7D4
:102B10000000529AADE0AA95F1F70000519849994A
:102B20000FC0A5E3AA95F1F700008FE097E206C079
:102B3000F5E3FA95F1F70000019711F0499BF8CF02
:102B4000BDE0BA95F1F700005298F80181818093B9
:102B50003A018B359CF580350CF434CF5ECB2B835A
:102B600027968FAD2797822727968FAF27975A8270
:102B70004982FECA26964FAD26974F3341F1F701A1
:102B8000E40FF11D2083942F9F5F26969FAF269719
:102B90008B81981769F127968FAD27978227279603
:102BA0008FAF2797E5CA2C8327968FAD279782276B
:102BB00027968FAF27977A826982DACA8091760149
:102BC00080648093760129CB81589F4F16CB94EE79
:102BD0008FECACCA809176018068809376011DCB22
:102BE00082E090E09A83898327962FAF2797C0CA07
:102BF00027968FAD27978068F601E90FF11D908128
:102C0000891709F4DDC095EE8EEC90CA9093A1006F
:102C10008093A00004969093A5008093A400109246
:102C2000A7001092A6008091B2009091B3009093FB
:102C3000AB008093AA001092AD001092AC001092ED
:102C4000B1001092B0003FCB2530310509F463C0CC
:102C500008F443C02630310509F072C81092A10073
:102C60001092A0001092A5001092A4001092A7004C
:102C70001092A6002091B2003091B3003093AB00C7
:102C80002093AA009093AD008093AC00049690939B
:102C9000B1008093B00017CB1092A1001092A00059
:102CA0002091B2003091B3003093A5002093A4008E
:102CB0009093A7008093A60004969093AB00809316
:102CC000AA001092AD001092AC001092B1001092C8
:102CD000B000F9CA98010C948D0E1092A1001092C8
:102CE000A0002091B2003091B3003093A500209352
:102CF000A4001092A7001092A6001092AB001092B0
:102D0000AA009093AD008093AC0004969093B1001C
:102D10008093B000D8CA9093A1008093A00004963D
:102D20009093A5008093A4001092A7001092A60093
:102D30001092AB001092AA001092AD001092AC005D
:102D40008091B2009091B3009093B1008093B00055
:102D5000BACAAB968FADAB97877FAB968FAFAB9769
:102D600021E0AE0146595F4F61E082E80E94F30224
:102D7000811160C95AC9AB968FADAB978260AB9693
:102D80008FAFAB9721E0AE0146595F4F63E082E819
:102D90000E94F302811141C93BC9AB968FADAB973D
:102DA0008B7FAB968FAFAB9721E0AE0146595F4F5B
:102DB00061E082E80E94F302882309F465C969C9C9
:102DC0008C81882369F18D3F09F485C08F3F09F418
:102DD000ABC08E3F09F451C02996EEADFFAD2997E7
:102DE000B7010995892B09F0B9C98091C90084FD03
:102DF000FCCF9092D2008091C90084FDFCCFB092AC
:102E0000D2008091C90084FDFCCF80EE8093D20077
:102E10008091C90084FDFCCF8BEC8093D2009EC9C9
:102E20008091C90084FDFCCF9092D2008091C900AE
:102E300084FDFCCF84E08093D2008091C90084FDA2
:102E4000FCCF1092D200E0E0F1E09EE2DF012081B1
:102E50008091C90084FDFCCF2093D20031968C91E3
:102E60009827B1E0E330FB0789F790688091C900AB
:102E700084FDFCCF9093D20071C98091C90084FD7C
:102E8000FCCF9092D2008091C90084FDFCCF86E0F7
:102E90008093D2008091C90084FDFCCF8EEF809397
:102EA000D200E5E2F1E092EDDF0120818091C900DE
:102EB00084FDFCCF2093D20031968C91982721E09D
:102EC000EA32F20789F790688091C90084FDFCCF4F
:102ED0009093D20043C98FB6F894F999FECF60E27F
:102EE0007FED8EEF93E00E94911880E2809337018E
:102EF0008FBE8091C90084FDFCCF9092D20080915A
:102F0000C90084FDFCCFB092D2008091C90084FD3D
:102F1000FCCF8DEF8093D2008091C90084FDFCCF5F
:102F200086ED8093D2001AC90E947B0D0E949E17E5
:102F3000332312F48A1B9B0B0C94AC17A29FB00195
:102F4000B39FC001A39F01D0B29F700D811D1124BA
:102F5000911D08950E949E17B7FF0895821B930B41
:102F60000895B7FF0C9442180E944218821B930BDD
:102F7000089597FB072E16F4009407D077FD09D02B
:102F80000E944D1807FC05D03EF4909581959F4F07
:102F90000895709561957F4F0895A1E21A2EAA1B9E
:102FA000BB1BFD010DC0AA1FBB1FEE1FFF1FA217F9
:102FB000B307E407F50720F0A21BB30BE40BF50BF6
:102FC000661F771F881F991F1A9469F7609570957F
:102FD000809590959B01AC01BD01CF010895052E10
:102FE00097FB16F4009407D057FD0DD00E94CD1723
:102FF00007FC09D07EF490958095709561957F4F80
:103000008F4F9F4F089550954095309521953F4F94
:103010004F4F5F4F08952F923F924F925F926F9262
:103020007F928F929F92AF92BF92CF92DF92EF9258
:10303000FF920F931F93CF93DF93CDB7DEB7CA1BD9
:10304000DB0B0FB6F894DEBF0FBECDBF09942A8804
:10305000398848885F846E847D848C849B84AA84AC
:10306000B984C884DF80EE80FD800C811B81AA8139
:10307000B981CE0FD11D0FB6F894DEBF0FBECDBF04
:10308000ED0108950E949E17A59F900DB49F900D8D
:10309000A49F800D911D11240895AA1BBB1B51E113
:1030A00007C0AA1FBB1FA617B70710F0A61BB70BB8
:1030B000881F991F5A95A9F780959095BC01CD015D
:1030C0000895DC01CB01FC01F999FECF06C0F2BDE9
:1030D000E1BDF89A319600B40D9241505040B8F7D6
:1030E0000895F999FECF92BD81BDF89A992780B5D0
:1030F0000895DC01CB0103C02D910E94841841503A
:103100005040D0F70895262FF999FECF1FBA92BDEF
:1031100081BD20BD0FB6F894FA9AF99A0FBE0196B8
:1031200008950E948318272F0C948418F894FFCFD9
:1031300001010060090A83FE4901B5FEAD0002529B
:1031400000F0FE9EFDFF0101000000000000001ED7
:0C315000554B64320042524F4F4D0000BE
:00000001FF
