:100000000C9434000C9451000C9451000C94510049
:100010000C9451000C9451000C9451000C9451001C
:100020000C9451000C9451000C9451000C9451000C
:100030000C9451000C9451000C9451000C945100FC
:100040000C9451000C9451000C94C5020C94510076
:100050000C9451000C9451000C9451000C945100DC
:100060000C94E5020C94510011241FBECFEFD4E094
:10007000DEBFCDBF11E0A0E0B1E0E4E0FAE002C0F5
:1000800005900D92AA30B107D9F711E0AAE0B1E0CE
:1000900001C01D92A93EB107E1F70E9466030C94CE
:1000A00000050C94000087E090E09093C5008093D9
:1000B000C400E0ECF0E080818D7F808386E0809357
:1000C000C200E1ECF0E088E1808380818068808379
:1000D000089590917C00907C982B90937C00809167
:1000E0007A00806480937A0080917A0086FDFCCF4C
:1000F0002091780030917900C90108950F931F93E2
:10010000CF93DF93C0910A01D0910B0180E00E9450
:100110006900C80FD91FD0930B01C0930A01C09189
:100120000C01D0910D0181E00E946900C80FD91F18
:10013000D0930D01C0930C01C0910E01D0910F011D
:1001400082E00E946900C80FD91FD0930F01C093AD
:100150000E01C0911001D091110183E00E9469004D
:10016000C80FD91FD0931101C0931001C091120183
:10017000D091130186E00E946900C80FD91FD09367
:100180001301C0931201C0911401D091150187E0B1
:100190000E946900C80FD91FD0931501C0931401A4
:1001A00080911601982F9F5F909316018C33E1F494
:1001B00020E030E00CE310E0F901EE0FFF1FEF014B
:1001C000C65FDE4F88819981B8010E94A204E95E72
:1001D000FE4F71836083198218822F5F3F4F263054
:1001E000310551F710921601DF91CF911F910F91B8
:1001F0000895ECEBF0E080818F70806A8083089531
:10020000ECEBF0E080818F70806D80830895ECEBE3
:10021000F0E080818F70806C80830895ECEBF0E0DB
:1002200080818F708068808308950E940001809192
:10023000BC0084FFFCCF08958091BC0087FFFCCFF9
:1002400008958093BB00ECEBF0E080818F708068B4
:10025000808308959091C00095FFFCCF8093C600E5
:100260000895AF92BF92DF92EF92FF920F931F9388
:10027000DF93CF930F92CDB7DEB7082FF62ED42E93
:10028000142F1F5F9AE2E92EE826E1268AE279839D
:100290000E942A01812F0E942A01802F0E942A0198
:1002A00079814F2D572F5A0109C08501F5018191A0
:1002B0005F010E942A01F8018081E8268A2D8F19AA
:1002C0008D1598F38E2D80680E942A010F90CF9192
:1002D000DF911F910F91FF90EF90DF90BF90AF9053
:1002E000089580E067E071E043E00E9431010895E5
:1002F000882319F0813041F404C05B98549A5C9AC9
:1003000008955C9854985B9A0895CF93DF93C82F13
:10031000D0E0CE0180FF02C05F9A01C05F9880E00C
:100320000E947801C1FF02C05E9A01C05E98DF9111
:10033000CF910895A1E0B0E0E0EAF1E00C94C604AA
:100340008091BC008E7F8093BC000E94F9000E94C7
:100350001C0180E90E9421010E941C018091B900CA
:10036000883171F4809105010E9421010E941C01D5
:10037000809106010E9421010E941C0181E001C0C0
:1003800080E089830E9415019091BC009160909358
:10039000BC0089812196E2E00C94E204ADE0B0E07B
:1003A000E4EDF1E00C94B904FB01823009F4C9C01A
:1003B000833020F4813009F0DEC007C0833009F4B7
:1003C000C5C0843009F0D7C0C6C080901701909096
:1003D0001801C0901901D0901A01E0901B01F09013
:1003E0001C0100911D0110911E0160901F01709071
:1003F0002001A0902101B090220181E880930601A4
:100400000E949A018091BC008E7F8093BC000E9464
:10041000F9000E941C0180E90E9421010E941C0138
:100420008091B9008831F9F480E00E9421010E9496
:100430001C010E94F9000E941C0181E90E94210117
:100440000E941C018091B900803469F40E94070168
:100450000E941C015090BB000E940E010E941C01D2
:100460008091BB0002C080E055248D870E94150159
:100470009091BC0091609093BC008D8582958F70A7
:1004800090E0252D30E054E0220F331F5A95E1F71C
:10049000822B932B57FC906FE82D7C2D6E2D502FC7
:1004A000960146E0369527954A95E1F7422F4C7024
:1004B000292D2370422B9701B4E036952795BA95E4
:1004C000E1F72073422B1695079516950795007C4A
:1004D000402B062DBA2D9501F6E036952795FA9515
:1004E000E1F72C70372D3370232BA92F99B14E993A
:1004F00004C0991F9927991F01C092E039B1F9B141
:10050000E9837A836B835C834D830E83BF83288763
:10051000A9878A879B8781E090E0F3FD02C080E095
:1005200090E024E0880F991F2A95E1F721E034FD3F
:1005300020E0822B8C8781E0BE016F5F7F4F4CE013
:1005400015C080810E94850182E00DC080810E94DB
:10055000780183E008C080814B9904C013C05C9887
:1005600001C05C9A84E060E070E040E00E943101EC
:1005700021E030E002C020E030E0C9012D96EFE03C
:100580000C94D504882359F7ECCF1F920F920FB625
:100590000F9211248F939F93EF93FF938091E70124
:1005A000E82FF0E09091C600E959FE4F90838F5FED
:1005B00087FD80E08093E701FF91EF919F918F91FC
:1005C0000F900FBE0F901F9018951F920F920FB6AD
:1005D0000F9211242F933F934F935F936F937F93C9
:1005E0008F939F93AF93BF93EF93FF938091B90045
:1005F000887F803959F18139A0F4803721F1813722
:1006000040F4803601F18836F1F0882309F44BC0BC
:100610004CC08038D9F0883839F1883709F045C0A6
:1006200012C0803B21F1813B38F4803AC9F1883A0D
:10063000F1F08839D1F518C0803C91F1883C81F106
:10064000883B99F516C0109224012AC0809124019C
:100650009091BB00E82FF0E0EB5DFE4F90838F5F41
:10066000809324018032E0F00E940E011EC010929F
:10067000450180914501E82FF0E0EA5BFE4F908153
:100680009093BB008F5F809345019091660189171D
:1006900038F00E940E01109266011092450105C0CB
:1006A0000E94070102C00E940001FF91EF91BF91DB
:1006B000AF919F918F917F916F915F914F913F91FA
:1006C0002F910F900FBE0F901F901895A8E1B0E0EA
:1006D000ECE6F3E00C94BA0428E288E190E00FB66F
:1006E000F894A895809360000FBE209360000E944C
:1006F000530081E080937E0087E080937A008091B0
:100700007A00806C80937A0080EC80937C008091EA
:100710007A0086FDFCCF0CE310E00E947E000150C1
:100720001040D9F7459A449A8091BC008564809323
:10073000BC008091B9008E7F8093B9008091B90090
:100740008D7F8093B9008AE08093B80081E0809328
:1007500006010E949A01539A80E00E947801579AFC
:10076000569A80E00E94850178942FE088E190E01D
:100770000FB6F894A895809360000FBE2093600098
:100780008EEC91E0988F8F8B1A8219821B821C82CB
:100790001D8A1E8A0E9453000E947101A3E0CA2E86
:1007A000D12CF4E0AF2EB12C8E010B5F1F4FE4E093
:1007B000EE2EF12CEC0EFD1E70E2772E62E0862EFE
:1007C000912CA8950E947E008091C00083FF06C0F6
:1007D00083EE60E070E040E00E9431018091E8012A
:1007E0009091E701981769F3F894E82FF0E0E95940
:1007F000FE4F20818F5F87FD80E08093E801789431
:1008000089819A8182309105A1F0833091051CF491
:10081000009749F078C08330910591F084309105BC
:1008200009F071C014C02A3209F070C09A8289821E
:1008300026C02B838E8982278E8BDA82C98260C084
:100840002C838E8982278E8BBA82A98259C08D898A
:100850008F3009F45EC0F801E80FF11D20838F5F2F
:100860008D8B4B819E89841749F49068F701E80FBE
:10087000F11D8081981709F04FC05FC029272E8B8A
:100880003FC00E94710136C08D3F79F46FB6F89475
:10089000F999FECF8EEF91E060E27FED0E94ED04CA
:1008A000709223016FBE8DEF20C08F3F89F460E00E
:1008B00070E040E00E94310128E088E190E00FB64E
:1008C000F894A895809360000FBE20936000FFCF3E
:1008D0008E3F21F460E071E044E00AC0EF89F88DBA
:1008E000B8010995009731F480EE60E070E040E0D7
:1008F0000E9431011A8219821B821C821D8A1E8A63
:1009000080E090E00BC086EE90E008C081EE90E0C1
:1009100005C084EE90E002C085EE90E0009709F4F7
:1009200050CF60E070E040E00E9431011A821982ED
:100930001B821C821D8A1E8A44CF8C81882309F069
:10094000A3CF9FCFAA1BBB1B51E107C0AA1FBB1F90
:10095000A617B70710F0A61BB70B881F991F5A954B
:10096000A9F780959095BC01CD0108952F923F92F3
:100970004F925F926F927F928F929F92AF92BF92AF
:10098000CF92DF92EF92FF920F931F93CF93DF935B
:10099000CDB7DEB7CA1BDB0B0FB6F894DEBF0FBEB8
:1009A000CDBF09942A88398848885F846E847D8405
:1009B0008C849B84AA84B984C884DF80EE80FD8007
:1009C0000C811B81AA81B981CE0FD11D0FB6F8947D
:1009D000DEBF0FBECDBFED0108950E94F204272FA8
:1009E0000C94F304262FF999FECF1FBA92BD81BD56
:1009F00020BD0FB6F894FA9AF99A0FBE01960895A1
:040A0000F894FFCF98
:0A0A0400444F414D000100010001C4
:00000001FF
