:100000000C9434000C9451000C9451000C94510049
:100010000C9451000C9451000C9451000C9451001C
:100020000C9451000C9451000C9451000C9421023A
:100030000C9451000C9451000C9451000C945100FC
:100040000C9451000C9451000C9451000C945100EC
:100050000C9451000C9451000C9451000C945100DC
:100060000C9450020C94510011241FBECFEFD4E029
:10007000DEBFCDBF11E0A0E0B1E0E2E6F9E002C0F2
:1000800005900D92AA32B107D9F711E0AAE2B1E0CA
:1000900001C01D92A537B107E1F70E9494030C94AB
:1000A000AF040C9400005F980895ECEBF0E08081C1
:1000B0008E70816D80830895ECEBF0E080818F700D
:1000C000806C80830895ECEBF0E080818F70806815
:1000D000808308958091BC0087FFFCCF08958093B2
:1000E000BB00ECEBF0E080818F7080688083089526
:1000F00090913201913240F4E92FF0E0ED5CFE4F37
:1001000080839F5F909332010895AF92BF92DF92F8
:10011000EF92FF920F931F93DF93CF930F92CDB780
:10012000DEB7082FF62ED42E142F1F5F8AE2E82E9A
:10013000E026E1268AE279830E947800812F0E94DE
:100140007800802F0E94780079814F2D572F5A0117
:1001500009C08501F50181915F010E947800F801D5
:100160008081E8268A2D8F198D1598F38E2D806851
:100170000E9478000F90CF91DF911F910F91FF9017
:10018000EF90DF90BF90AF90089590917C00907CAD
:10019000982B90937C0080917A00806480937A0001
:1001A00080917A0086FDFCCF209178003091790013
:1001B000C9010895AAE0B0E0E0EEF0E00C946D040F
:1001C000823009F448C0833009F469C0813009F0F5
:1001D0006BC080E00E94C5005C0181E00E94C50008
:1001E0007C0182E00E94C5008C0183E00E94C50072
:1001F0006C0186E00E94C50060912A0150912B019C
:10020000AA82EB820C83CD829701F6E03695279582
:10021000FA95E1F7422F4C702B2D2370422BE4E02E
:1002200016950795EA95E1F70073402B96013695F0
:10023000279536952795207C422B4E838F836887A0
:10024000937099878EE1851B8A8781E0BE016E5F7E
:100250007F4F49E021C0FB018081898380FF02C07C
:100260005A9A01C05A9881FF02C05B9A01C05B98FC
:1002700082FF02C05C9A01C05C9883FF02C05D9A55
:1002800001C05D9884FF02C05E9A01C05E9882E062
:10029000BE016F5F7F4F41E00E94850002C00E9457
:1002A000530021E030E002C020E030E0C9012A968E
:1002B000EAE00C948904A0E0B0E0E1E6F1E00C94FF
:1002C0006704D62E542EE82EE7017E01F92EE701B1
:1002D000062F172F23E0E22EF12C94E0A92EB12C4B
:1002E00084E0882E912C8C0E9D1EB0E24B2EA2E055
:1002F0006A2E712C91C0F80121918F01888199811A
:1003000082309105A1F0833091051CF4009749F0EB
:100310006DC08330910591F08430910509F066C07D
:1003200014C02A3209F065C07982688226C02A8307
:100330008D8982278D8BF982E8826EC02B838D890F
:1003400082278D8BB982A88267C04C894F3009F40F
:1003500053C0FE01E40FF11D24834F5F4C8B9A8143
:100360008D89491749F48068FE01E40FF11D9381DE
:10037000891709F044C060C028272D8B4DC080E04C
:1003800067E271E043E040C08D3F79F4CFB6F89466
:10039000F999FECF8EEF91E060E27FED0E949C0420
:1003A00040923101CFBE8DEF2CC08F3F89F460E0C9
:1003B00070E040E00E94850028E088E190E00FB600
:1003C000F894A895809360000FBE20936000FFCF43
:1003D0008E3F21F460E071E044E016C0EE89FF89B1
:1003E000B4010995009791F480EE0BC086EE90E081
:1003F00008C081EE90E005C084EE90E002C085EE7A
:1004000090E060E070E040E00E9485001982188270
:100410001A821B821C8A1D8A802F8D19851508F46B
:100420006ACF198218821A821B821C8A1D8ACDB754
:10043000DEB7E0E10C9483048B81882309F0A4CF1C
:100440009ECF1F920F920FB60F9211242F933F93BE
:100450004F935F936F937F938F939F93AF93BF93CC
:10046000EF93FF9380912B018F5F80932B018091FD
:100470002B018E3121F410922B010E945300FF9129
:10048000EF91BF91AF919F918F917F916F915F910C
:100490004F913F912F910F900FBE0F901F90189585
:1004A0001F920F920FB60F9211242F933F934F93E9
:1004B0005F936F937F938F939F93AF93BF93EF93CC
:1004C000FF938091B900887F803979F18139A0F458
:1004D000803741F1813740F4803621F1883611F1BF
:1004E000882309F461C062C08038F9F0883859F176
:1004F000883709F05BC016C0803BD1F1813B40F4E6
:10050000803A21F1883AA1F1883909F04FC01BC027
:10051000803C09F446C0883C09F443C0883B09F09C
:1005200045C028C0109253013CC080915301909166
:10053000BB00E82FF0E0EC5AFE4F90838F5F809372
:100540005301803270F10E94630030C00E945C0051
:10055000E0912D01F0912E01309741F180912F0112
:100560009091300164E571E04091530109951EC0FE
:100570001092740180917401E82FF0E0ED5CFE4F61
:1005800090819093BB008F5F8093740190913201B2
:10059000891738F00E9463001092320110927401A2
:1005A00005C00E945C0002C00E945500FF91EF91BF
:1005B000BF91AF919F918F917F916F915F914F917B
:1005C0003F912F910F900FBE0F901F9018950F9392
:1005D0001F93182F062F8091BC008E7F8093BC0044
:1005E0008091BC008F70806A8093BC000E946A007A
:1005F00080E40E946F000E946A008091B9008831F7
:1006000051F4812F0E946F000E946A00802F0E9487
:100610006F000E946A000E9455008091BC0084FF18
:10062000FCCF8091BC0081608093BC001F910F9132
:1006300008951F93162F807F182B612F646089E027
:100640000E94E70289E0612F0E94E70280E098E4BF
:100650000197F1F71F9108950F931F93082F162FFD
:100660000E941903802F8295807F612F0E941903B9
:100670001F910F91089561E00E942C030895EF925D
:10068000FF92CF93DF93E82EE7017E01F92EE70179
:1006900002C00E943B0389918823D9F7DF91CF9153
:1006A000FF90EF900895CF93DF93EC0161157105F2
:1006B00011F481E004C06130710539F480EC60E030
:1006C0000E942C03CE010E943F03DF91CF91089539
:1006D00081E060E00E942C03089580E060E00E94C9
:1006E000E70289E060E00E94E70280E360E00E94A8
:1006F000190380E360E00E94190380E360E00E9438
:10070000190380E260E00E94190388E260E00E9421
:100710002C038CE060E00E942C030E94680386E0BA
:1007200060E00E942C030895A8E1B0E0EAE9F3E05C
:100730000C94750428E288E190E00FB6F894A8952F
:10074000809360000FBE2093600078945A985B9865
:100750005C985D985E98529A539A549A559A569A14
:10076000579A5F9A5A9A5B9A5C9A5D9A5E9A81E070
:1007700080937E0087E080937A0080917A00806C7D
:1007800080937A0080EC80937C0080917A0086FDD3
:10079000FCCF8AED90E0988F8F8B1A8219821B8292
:1007A0001C821D8A1E8A8BE591E090932E01809316
:1007B0002D01CE0101969093300180932F01459A2F
:1007C000449A8091BC0085648093BC008091B900FC
:1007D0008E7F8093B9008091B9008D7F8093B9009E
:1007E0008AE08093B80080E28093BA000E946D0393
:1007F00085E091E060E070E00E94530386E191E0C3
:1008000061E070E00E9453032EE088E190E00FB6B3
:10081000F894A895809360000FBE20936000ADED22
:10082000F3E080E498E3E2E071E0A89563B15091D1
:100830002C01462F47954427479560FF13C0552349
:1008400029F5A0938100F093800090938900809314
:100850008800E0936F0010928500109284007093DE
:100860002C0114C0552391F0109281001092800049
:10087000109289001092880010926F0010928500EB
:100880001092840010922C0110922B0121E04A9BBF
:1008900020E0422B4B9B02C022E001C020E0242B31
:1008A0004C9B02C044E001C040E0422B4D9B02C083
:1008B00038E001C030E0342B4E9B02C020E101C083
:1008C00020E0232B20932A01B0CF2F923F924F920A
:1008D0005F926F927F928F929F92AF92BF92CF92D0
:1008E000DF92EF92FF920F931F93CF93DF93CDB7D9
:1008F000DEB7CA1BDB0B0FB6F894DEBF0FBECDBF51
:1009000009942A88398848885F846E847D848C8421
:100910009B84AA84B984C884DF80EE80FD800C812A
:100920001B81AA81B981CE0FD11D0FB6F894DEBF0D
:100930000FBECDBFED0108950E94A104272F0C9496
:10094000A204262FF999FECF1FBA92BD81BD20BD0A
:100950000FB6F894FA9AF99A0FBE01960895F89492
:02096000FFCFC7
:100962004D43422000202A204D616E7461204132A5
:100972003030202A200020203E2053746172746996
:0A0982006E67203C202000010001F8
:00000001FF
