:100000000C9434000C9451000C9451000C94510049
:100010000C9451000C9451000C9451000C9451001C
:100020000C9451000C9451000C9451000C94C60592
:100030000C9451000C9451000C9451000C945100FC
:100040000C9451000C9451000C9451000C945100EC
:100050000C9451000C9451000C9451000C945100DC
:100060000C942D050C94510011241FBECFEFD4E049
:10007000DEBFCDBF11E0A0E0B1E0E8E2F1E102C0F7
:1000800005900D92A835B107D9F711E0A8E5B1E0C8
:1000900001C01D92A33DB107E1F70E94FA050C943F
:1000A00092080C940000459A449AECEBF0E08081B1
:1000B00085648083E9EBF0E080818E7F808380819E
:1000C0008D7F808381E48093B80080E28093BA00C2
:1000D0000895ECEBF0E080818F70806A8083089552
:1000E000ECEBF0E080818F70806C80830895ECEB06
:1000F000F0E080818F708068808308958091BC00DB
:1001000087FFFCCF08958093BB00ECEBF0E080818B
:100110008F708068808308959091C501913250F46A
:10012000E92FF0E0EB55FE4F80839F5F9093C50170
:1001300081E0089580E0089510928100109280007F
:10014000109289001092880010926F001092850022
:100150001092840010927E0110927D01089590917A
:100160007C00907C982B90937C0080917A00806436
:1001700080937A0080917A0086FDFCCF20917800F0
:1001800030917900C9010895AF92BF92DF92EF924A
:10019000FF920F931F93CF93DF931F92CDB7DEB7DC
:1001A000182FD62EE42E042F0F5F8AE2F82EF126A8
:1001B000F0268AE279830E948C00802F0E948C00B6
:1001C000812F0E948C00AD2C7981B72E09C085014A
:1001D000F50181915F010E948C00F8018081F82671
:1001E0008A2D8D198E1598F38F2D80680E948C00B2
:1001F0000F90DF91CF911F910F91FF90EF90DF90C3
:10020000BF90AF9008950F931F93CF93DF93C0914A
:100210006201D091630180E00E94AF008C0F9D1FAE
:100220009093630180936201C0916401D091650154
:1002300081E00E94AF008C0F9D1F90936501809319
:100240006401C0916601D091670182E00E94AF0015
:100250008C0F9D1F9093670180936601C091680188
:10026000D091690183E00E94AF008C0F9D1F909395
:10027000690180936801C0916A01D0916B0186E0A9
:100280000E94AF008C0F9D1F90936B0180936A01B9
:10029000C0916C01D0916D0187E00E94AF008C0F7E
:1002A0009D1F90936D0180936C0180916101982F47
:1002B0009F5F909361018C33F9F420E030E00CE310
:1002C00010E04FB7F894E901CC0FDD1FFE01EE59A5
:1002D000FE4F80819181B8010E941208C259DE4F01
:1002E000798368834FBF118210822F5F3F4F263082
:1002F000310539F710926101DF91CF911F910F9174
:100300000895FC0180E037E00EC09191892798E0C4
:10031000282F220F87FF03C0822F832701C0822F3F
:100320009150B1F761506111F0CF0895A0E0B0E0B5
:10033000ECE9F1E00C943108EC017B01042F642F0F
:10034000C7010E948101D82E10E0A801BE01C7019B
:100350000E9475086D2DCE01800F911F0E947F08AD
:10036000CDB7DEB7E7E00C944D08ABE0B0E0EBEBC7
:10037000F1E00C9432088B01F42E833009F474C040
:1003800030F4813059F0823009F0C1C065C084304A
:1003900009F497C0853009F0BAC0B0C000916E0171
:1003A00010916F0160917001709171014091720123
:1003B00050917301A0917401B0917501E0917601A3
:1003C000F0917701209178013091790109836A8356
:1003D0004B83AC8396E0769567959A95E1F76C70C0
:1003E0007727912F9370962B64E0569547956A95E1
:1003F000E1F740735527942BB695A795B695A79529
:10040000A07C9A2B9D83EE832F83E6E0369527957B
:10041000EA95E1F72C7033279F2F9370922B9887E2
:1004200093B143B120917C0130917D01982797953C
:100430009927979541FB882780F98295880F880F27
:10044000807C982B231B2F71922B998749E0BE014A
:100450006F5F7F4F81E04FC0FB018081882311F0E7
:100460005D9A52C05D9850C0FA94DB01E6ECF1E071
:1004700080E090E04FB7F8942D913C911197608106
:1004800071812617370741F44FBF1296329621E04B
:10049000E23DF20779F705C03183208381E090E0E7
:1004A000F3CF892B51F0EFB6F8944CE066EC71E095
:1004B00080E090E00E949601EFBE4F2DB80183E0EE
:1004C0001AC0FB01818190E085609160308120E05D
:1004D000822B932B9B878A87EFB6F89442E0BE016C
:1004E000665F7F4F8DE090E00E949601EFBE4F2D3A
:1004F0004150B80184E00E94C40006C081E090E051
:10050000909359018093580121E030E002C020E02F
:1005100030E0C9012B96E6E00C944E08A0E0B0E074
:10052000E4E9F2E00C942808EC01762E642E062F04
:10053000172FF3E0EF2EF12CA4E0CA2ED12C5C0192
:1005400084E0A80EB11CB0E25B2E82E0882E912CD4
:100550008AC0F80121918F018881998182309105AB
:1005600089F01CF4892B41F071C08330910589F02A
:10057000049709F06BC014C02A3209F084C0998234
:10058000888225C02A838D8982278D8BF982E88213
:100590006AC02B838D8982278D8BD982C88263C0E4
:1005A0004C894F3009F472C0FE01E40FF11D248321
:1005B0004F5F4C8B9A818D89491308C08068FE017A
:1005C000E40FF11D9381891364C059C028272D8B36
:1005D0004AC043E061E071E080E03DC08D3F91F4AE
:1005E0004FB6F894F999FECF60E27FED8EEF91E07F
:1005F0000E948D085092D2014FBE40E060E070E052
:100600008DEF29C08F3F89F440E060E070E00E94E8
:10061000C40028E088E190E00FB6F894A895809394
:1006200060000FBE20936000FFCF8E3F21F444E0B6
:1006300060E371E010C0EE89FF89B5010995892B4F
:1006400061F440E060E070E080EE05C086EE90E08E
:1006500040E060E070E00E94C400198218821A82B3
:100660001B821C8A1D8A802F8719861508F471CF7A
:10067000198218821A821B821C8A1D8A0DC08B81E6
:100680008111ACCFA6CF81EE90E0E2CF84EE90E076
:10069000DFCF85EE90E0DCCFCDB7DEB7E0E10C94A4
:1006A00044088091BC008F70806D8093BC00809165
:1006B000BC0084FFFCCF0895A1E0B0E0E2E6F3E0E7
:1006C0000C9434088B019091BC009E7F9093BC00E9
:1006D00089830E9469000E947E0089818E7F0E942A
:1006E00083000E947E008091B900883171F4F80186
:1006F00080810E9483000E947E00F80181810E9417
:1007000083000E947E0081E001C080E089830E9416
:1007100051039091BC0091609093BC008981219617
:10072000E4E00C945008A2E0B0E0E9E9F3E00C94B6
:10073000360889836A83BE016F5F7F4F80E40E9421
:100740005C032296E2E00C945208CF93C62F807F80
:10075000C82B6C2F646089E00E9493036C2F89E0A2
:100760000E9493038FEF97E40197F1F700C0000018
:10077000CF910895CF93DF93C82FD62F0E94A50362
:100780006D2F8C2F8295807F0E94A503DF91CF91E2
:10079000089561E00E94BA03089560E080680E94B5
:1007A000BA030895A2E0B0E0E8EDF3E00C94360857
:1007B00089836A83BE016F5F7F4F88E40E945C0378
:1007C00090E02296E2E00C945208CF93C82F8E5E00
:1007D0000E94D203892BC1F19091BC009E7F90931F
:1007E000BC000E9469000E947E0088E40E94830091
:1007F0000E947E008091B900883111F0C0E01AC0DB
:100800008C2F8C5D0E9483000E947E000E946900F4
:100810000E947E0089E40E9483000E947E008091F5
:10082000B900803459F70E9477000E947E008091C1
:10083000BB00C1E00E9451038091BC0081608093A5
:10084000BC002C2F30E002C020E030E0C901CF9185
:10085000089560E080E00E94E50360E081E00E948E
:10086000E50381E090E09093590180935801199B32
:100870005F980895A4E0B0E0E0E4F4E00C9434085C
:1008800085E091E09C838B831A8219821FB7F894CC
:1008900042E050E06DE070E0CE0101960E945D08FC
:1008A0008FE090E00E946D08082F62E0CE01019673
:1008B0000E948101081310C01FBF698180E00E945F
:1008C000E5036A8181E00E94E50382E090E0909375
:1008D0005901809358010DC08B8189838C818A8353
:1008E00042E0BE016F5F7F4F8DE090E00E94960175
:1008F000E3CF2496E4E00C9450080F931F93CF931A
:10090000DF9380915F01811119C060E085EC0E9446
:10091000BA0380E00E94C90381E00E94C90381E01C
:100920000E94C90381E00E94C90381E00E94C903BB
:1009300082E00E94C90381E080935F0180916001A1
:10094000843080F4809160018A5B60E080680E945E
:10095000BA0383E00E94C903809160018F5F809396
:1009600060011EC0809100018150809360018091E0
:1009700000018A5B60E080680E94BA03C0E0D0E0BA
:1009800004E010E004C081E00E94C9032196809138
:1009900000019801281B3109C217D307A4F3D2CF55
:1009A000DF91CF911F910F910895EF92FF920F93D6
:1009B0001F93CF93DF93A895C0E0D0E0CE010E94B3
:1009C000CD038FEF0E94C9038C2F805C60E08068AC
:1009D0000E94BA038FEF0E94C9032196C031D1054E
:1009E00069F7C7E0D0E00FE010E09FE4E92ECE0108
:1009F0000E94CD0380E20E94C903C8018C1B9D0B9D
:100A00000E94CD0380E20E94C903FC2E8C2F805CE3
:100A100060E080680E94BA0380E20E94C9038E2DC4
:100A20008C1B60E080680E94BA0380E20E94C903C8
:100A30002197E8F6A89580E090E00E94CD03C5E3F9
:100A4000D1E002C00E94C90389918111FBCFA89512
:100A5000CDB7DEB7E6E00C944E081F920F920FB6AA
:100A60000F9211242F933F934F935F936F937F9334
:100A70008F939F93AF93BF93EF93FF938091B900B0
:100A8000887F803961F198F4803731F140F4803605
:100A900019F1883609F1882309F461C066C08038ED
:100AA000F1F0883859F1883709F05FC015C0803BF4
:100AB000D1F140F4803A29F1883AA9F1883909F056
:100AC00054C01CC0803C09F447C0883C09F444C0B1
:100AD000883B09F04AC029C010927F013DC0809137
:100AE0007F019091BB00E82FF0E0E058FE4F90832B
:100AF0008F5F80937F01803208F42EC00E947700C0
:100B000034C00E947000E091A001F091A1013097E3
:100B100061F140917F0160E871E08091A2019091C4
:100B2000A301099522C01092A4018091A401E82F8D
:100B3000F0E0EB55FE4F90819093BB008F5F809368
:100B4000A4019091C501891738F00E947700109296
:100B5000C5011092A40109C00E94700006C08091D6
:100B6000BC008F70806D8093BC00FF91EF91BF91AE
:100B7000AF919F918F917F916F915F914F913F9135
:100B80002F910F900FBE0F901F9018951F920F92EC
:100B90000FB60F9211242F933F934F935F936F9350
:100BA0007F938F939F93AF93BF93EF93FF93809126
:100BB0007D018F5F80937D0190917D0180917C010B
:100BC000981307C00E949C00E0917A01F0917B018C
:100BD0000995FF91EF91BF91AF919F918F917F9177
:100BE0006F915F914F913F912F910F900FBE0F909A
:100BF0001F901895A0E2B0E0E0E0F6E00C94290820
:100C000028E288E190E00FB6F894A8958093600000
:100C10000FBE2093600078940E94530060E080E053
:100C20000E94930360E089E00E94930360E080E308
:100C30000E94A50360E080E30E94A50360E080E3DA
:100C40000E94A50360E080E20E94A50360E088E2C4
:100C50000E94BA0360E086E00E94BA0360E08CE084
:100C60000E94BA0380E090E00E94CD0360E081E042
:100C70000E94BA03559A81E080937E0087E08093BA
:100C80007A0080917A00806C80937A0080EC809367
:100C90007C0080917A0086FDFCCF0CE310E00E947E
:100CA000030101501109D9F71FB7F8944CE050E047
:100CB00060E070E086EC91E00E945D088CE090E0DE
:100CC0000E946D08082F6CE086EC91E00E94810183
:100CD00008130EC01FBF579A539A549A5F9A5B9A93
:100CE0005C9860E085E00E94D203892B19F112C064
:100CF000E4E2F1E0A6ECB1E081918D9381E0E03394
:100D0000F807D1F74CE066EC71E080E090E00E94DB
:100D10009601E0CF60E28AE00E94D203892B51F075
:100D200060E080E00E94D203892B21F060E081E046
:100D30000E94D20380E2E4E0F1E0DE01119601902E
:100D40000D928A95E1F7CC24C394D12CCC0EDD1EF4
:100D500000E010E0C801B3E0880F991FBA95E1F7F1
:100D600060E080640E94BA03E12CF12CF601EE0DE4
:100D7000FF1D61E080810E94BA03EFEFF7E4319735
:100D8000F1F700C00000FFEFEF1AFF0A88E0E81655
:100D9000F10461F70F5F1F4F98E0C90ED11C0430BA
:100DA0001105C1F683E084BD8DE085BD10926E0013
:100DB00080E987BD16BC10925E01109260011899FF
:100DC00003C082E090E002C081E090E0909359017E
:100DD000809358012FE088E190E00FB6F894A89531
:100DE000809360000FBE2093600085EB91E0988FA8
:100DF0008F8B1A8219821B821C821D8A1E8A8EE8A2
:100E000092E09093A1018093A001CE01019690936E
:100E1000A3018093A2010E945300BB24B3943AE043
:100E2000532E44E0642E5EE1A52E6DED962E73E008
:100E3000872EE0E4EE2EE8E3FE2EF2E07F2EA9E21C
:100E4000CA2EA4E0DA2EA8950E94030120915A012F
:100E500030915B0180915801909159012817390711
:100E6000E9F1809158019091590190935B01809331
:100E70005A0180915A0190915B01019781F40E947F
:100E80009C000E9429040E94D5045D98B092000144
:100E900010925F01B0925D010E947D041FC080919D
:100EA0005A0190915B010297C9F4B092000110922F
:100EB0005F0110925D010E943A040E94D5045D9A80
:100EC00060E080EC0E94BA0306E411E002C00E94D8
:100ED000C903F80181918F018111F9CFA89B5FC0EF
:100EE000A89A80915E018F5F80935E0180915E0180
:100EF000823309F054C0A091CA01B091CB01409156
:100F00007001509171018091C6019091C701489F75
:100F10009001499F300D589F300D11240E94060802
:100F20002AE096958795779567952A95D1F7209130
:100F3000D0013091D101529EA001539E500D112439
:100F40004617570718F06092000102C0B0920001E6
:100F500010925E0180910001843069F080915C0103
:100F6000882319F08130B1F403C05B9A5C9A0CC0FD
:100F70005B985C980DC05C9880915C01882319F0A7
:100F8000813041F404C05B9AB0925C0103C05B986D
:100F900010925C0180915D0181110E947D0480911D
:100FA0005A0190915B01029729F5189908C0809128
:100FB0007E01882309F447CF0E949C0044CF809192
:100FC0007E01811140CFA0927C019092810080929D
:100FD0008000F0928900E092880070926F00109279
:100FE000850010928400D0927B01C0927A01B09269
:100FF0007E0129CF80915A0190915B01019709F000
:1010000022CF189920CF0E943A041DCFA29FB00191
:10101000B39FC001A39F01D0B29F700D811D112409
:10102000911D0895AA1BBB1B51E107C0AA1FBB1F3E
:10103000A617B70710F0A61BB70B881F991F5A9564
:10104000A9F780959095BC01CD0108952F923F920C
:101050004F925F926F927F928F929F92AF92BF92C8
:10106000CF92DF92EF92FF920F931F93CF93DF9374
:10107000CDB7DEB7CA1BDB0B0FB6F894DEBF0FBED1
:10108000CDBF09942A88398848885F846E847D841E
:101090008C849B84AA84B984C884DF80EE80FD8020
:1010A0000C811B81AA81B981CE0FD11D0FB6F89496
:1010B000DEBF0FBECDBFED010895DC01CB01FC0109
:1010C000F999FECF06C0F2BDE1BDF89A319600B4A1
:1010D0000D9241505040B8F70895F999FECF92BD56
:1010E00081BDF89A992780B50895DC01CB0103C032
:1010F0002D910E94800841505040D0F70895262F2E
:10110000F999FECF1FBA92BD81BD20BD0FB6F894EC
:10111000FA9AF99A0FBE019608950E947F08272F28
:081120000C948008F894FFCF45
:101128000102000101010101010101001F0000008D
:1011380000001F0010101C1C1C1010001F001F1F97
:101148001F001F000B003A0CC6013A0CC6016400D0
:101158004D43422000202A204D616E7461204133A6
:101168003030202A200020203E2053746172746998
:081178006E67203C20200000FE
:00000001FF
