:100000000C9434000C9451000C9451000C94510049
:100010000C9451000C9451000C9451000C9451001C
:100020000C9451000C9451000C9451000C94FC055C
:100030000C9451000C9451000C9451000C945100FC
:100040000C9451000C9451000C94DB050C9451005D
:100050000C9451000C9451000C9451000C945100DC
:100060000C9442050C94510011241FBECFEFD4E034
:10007000DEBFCDBF11E0A0E0B1E0EEE0F6E102C0EE
:1000800005900D92A83CB107D9F722E0A8ECB1E0A9
:1000900001C01D92A635B207E1F70E9430060C940C
:1000A000050B0C940000459A449AECEBF0E080813B
:1000B00085648083E9EBF0E080818E7F808380819E
:1000C0008D7F80838AE08093B80080E28093BA00BD
:1000D0000895ECEBF0E080818F70806A8083089552
:1000E000ECEBF0E080818F70806C80830895ECEB06
:1000F000F0E080818F708068808308958091BC00DB
:1001000087FFFCCF08958093BB00ECEBF0E080818B
:100110008F7080688083089590913602913250F4F8
:10012000E92FF0E0EA5EFD4F80839F5F90933602F7
:1001300081E0089580E008952091550230915402A5
:10014000321791F0F894E22FF0E0EC5BFD4F308134
:10015000FC013083822F8F5F803108F080E0809334
:100160005502789481E0089580E008959091C00050
:1001700095FFFCCF8093C600089587E090E09093B0
:10018000C5008093C400E0ECF0E080818D7F808327
:1001900086E08093C200E1ECF0E088E1808380811A
:1001A00080688083089510928100109280001092E0
:1001B00089001092880010926F00109285001092B2
:1001C00084001092EF011092EE01089590917C004E
:1001D000907C982B90937C0080917A00806480932F
:1001E0007A0080917A0086FDFCCF209178003091D2
:1001F0007900C9010895AF92BF92DF92EF92FF920A
:100200000F931F93CF93DF931F92CDB7DEB7182FB5
:10021000D62EE42E042F0F5F8AE2F82EF126F02668
:100220008AE279830E948C00802F0E948C00812FAB
:100230000E948C00AD2C7981B72E09C08501F50193
:1002400081915F010E948C00F8018081F8268A2D3F
:100250008D198E1598F38F2D80680E948C000F9059
:10026000DF91CF911F910F91FF90EF90DF90BF90A2
:10027000AF9008950F931F93CF93DF93C091D30155
:10028000D091D40180E00E94E6008C0F9D1F9093D6
:10029000D4018093D301C091D501D091D60181E0E2
:1002A0000E94E6008C0F9D1F9093D6018093D5018C
:1002B000C091D701D091D80182E00E94E6008C0F56
:1002C0009D1F9093D8018093D701C091D901D091FF
:1002D000DA0183E00E94E6008C0F9D1F9093DA0103
:1002E0008093D901C091DB01D091DC0186E00E94AE
:1002F000E6008C0F9D1F9093DC018093DB01C09181
:10030000DD01D091DE0187E00E94E6008C0F9D1F89
:100310009093DE018093DD018091D201982F9F5F41
:100320009093D2018C33F9F420E030E00CE310E03C
:100330004FB7F894E901CC0FDD1FFE01ED52FE4FDF
:1003400080819181B8010E94D407C152DE4F798328
:1003500068834FBF118210822F5F3F4F26303105D7
:1003600039F71092D201DF91CF911F910F9108952B
:10037000FC0180E037E00EC09191892798E0282F9A
:10038000220F87FF03C0822F832701C0822F915045
:10039000B1F761506111F0CF0895A0E0B0E0E3ED56
:1003A000F1E00C94FF07EC017B01042F642FC701DF
:1003B0000E94B801D82E10E0A801BE01C7010E941A
:1003C000480A6D2DCE01800F911F0E94520ACDB7B1
:1003D000DEB7E7E00C941B08AF92BF92DF92EF927A
:1003E000FF920F931F93CF93DF931F92CDB7DEB78A
:1003F000182FD62EE42E2CE2F22EF826F426E091C9
:100400000701F09108018CE279830995E0910701D9
:10041000F09108018E2D0995E0910701F0910801F6
:10042000812F0995AD2C7981B72E08C08501D501A2
:100430008D915D010995F8018081F8268A2D8D192D
:10044000E0910701F09108018E1580F38F2D8068EF
:1004500009950F90DF91CF911F910F91FF90EF9031
:10046000DF90BF90AF900895ABE0B0E0EAE3F2E038
:100470000C9400088B01F42E833009F46EC030F424
:10048000813069F0823009F0C2C0B0C0853009F413
:10049000AAC008F48EC0863009F0B9C0AAC0009185
:1004A000DF011091E0016091E1017091E201409162
:1004B000E3015091E401A091E501B091E601E091E2
:1004C000E701F091E8012091E9013091EA01098307
:1004D0006A834B83AC8396E0769567959A95E1F7AE
:1004E0006C707727912F9370962B64E05695479503
:1004F0006A95E1F740735527942BB695A795B69565
:10050000A795A07C9A2B9D83EE832F83E6E03695FA
:100510002795EA95E1F72C7033279F2F9370922B44
:10052000988793B143B12091ED013091EE01982766
:1005300097959927979541FB882780F98295880F91
:10054000880F807C982B231B2F71922B998749E071
:10055000BE016F5F7F4F81E057C0DB01E7E3F2E050
:1005600080E090E06FB7F8942D913C911197408115
:1005700051812417350741F46FBF1296329622E05D
:10058000E334F20779F705C03183208381E090E0FE
:10059000F3CF892B51F0EFB6F8944CE067E372E0AB
:1005A00080E090E00E94CD01EFBE4F2DB80183E0C6
:1005B0002BC0FB01818190E085609160308120E05B
:1005C000822B932B9B878A87EFB6F89442E0BE017B
:1005D000665F7F4F8DE090E00E94CD01EFBE4F2D12
:1005E000B80184E011C081E08093C80121E030E0CF
:1005F00010C041506F5F7F4FF80180818F5F0E9474
:10060000EC014F2DB80186E00E94FB00EFCF20E007
:1006100030E0C9012B96E6E00C941C08A5E0B0E0A0
:10062000E4E1F3E00C94F4073C0169834A838B0115
:100630008B5B9F4F9D838C83F3E02F2E312C7301B6
:1006400094E4E90EF11CA4E04A2E512C6301A6E4C7
:10065000CA0ED11C5301B4E0AB0EB11CB2E08B2E1C
:10066000912CB5C0F80121918F01D3018D919C91FE
:1006700082309105A9F01CF4892B41F093C083309E
:100680009105C1F0049709F08DC01EC02A3209F00F
:10069000BCC0F30191828082AC81BD812C9397C054
:1006A000F3012283AC81BD818C9182278C933182AE
:1006B00020828DC0F3012383AC81BD818C91822780
:1006C0008C935182408283C0F70140814F3309F4FB
:1006D0009FC0F301E40FF11D2483942F9F5FD70186
:1006E0009C93F301828198130AC0AC81BD818C91E7
:1006F0008068E90FF11D938189138DC080C0EC8162
:10070000FD8180818227808362C043E060E571E0E3
:1007100080E03BC08D3FA9F42FB7F894F999FECF44
:1007200060E27FED8EEF91E02B830E94600AF0E2A1
:10073000F09343022B812FBF40E060E070E08DEF2B
:1007400024C08F3F89F440E060E070E00E94FB002D
:1007500028E088E190E00FB6F894A89580936000B7
:100760000FBE20936000FFCF8E3F21F444E06FE581
:1007700071E00BC0D601ED91FC91B5010995892B73
:1007800031F440E060E070E080EE0E94FB00F30195
:100790001182108212821382D7011C92EC81FD819A
:1007A000108215C086EE90E040E060E070E00E94AC
:1007B000FB00D30111961C921E9212961C92129766
:1007C00013961C92F7011082AC81BD811C92802F80
:1007D000B9818B1BEA818E1708F444CFD30111969F
:1007E0001C921E9212961C92129713961C92F30161
:1007F000EC5BFF4F1082EC81FD8110820FC0D301B2
:1008000013968C91811186CF80CF81EE90E0CCCF72
:1008100084EE90E0C9CF85EE90E0C6CF2596E2E168
:100820000C941008DB010D900020E9F7AD01415058
:100830005109461B570B8F5F0E94EC010895A1E1FF
:10084000B0E0E5E2F4E00C940408CE01019621E169
:10085000FC0111922A95E9F72091CD01222389F01C
:100860002091CE01222329F01092CE0164E671E09E
:1008700005C021E02093CE0165E771E00E942B08BE
:1008800026C02091CE01222359F01092CE01209152
:10089000CA013091CB013F932F9326E831E00BC082
:1008A00021E02093CE012091CA013091CB013F93EA
:1008B0002F9326E931E03F932F939F938F930E94CC
:1008C00032080F900F900F900F900F900F90BE0175
:1008D0006F5F7F4F81E00E9412046196E2E00C940A
:1008E00020088091BC008F70806D8093BC00809147
:1008F000BC0084FFFCCF0895A1E0B0E0E2E8F4E0A2
:100900000C940208082F162F9091BC009E7F9093A4
:10091000BC000E9469000E947E0088E40E9483005F
:100920000E947E008091B900883161F4802F0E947E
:1009300083000E947E00812F0E9483000E947E001F
:1009400081E001C080E089830E9471049091BC0025
:1009500091609093BC00898190E02196E4E00C9432
:100960001E08CF93C82F8E5E0E947C04892BC1F194
:100970009091BC009E7F9093BC000E9469000E94F1
:100980007E0088E40E9483000E947E008091B9006E
:10099000883111F0C0E01AC08C2F8C5D0E9483005A
:1009A0000E947E000E9469000E947E0089E40E94ED
:1009B00083000E947E008091B900803459F70E9424
:1009C00077000E947E008091BB00C1E00E9471040C
:1009D0008091BC0081608093BC002C2F30E002C06D
:1009E00020E030E0C901CF91089560E080E00E94EE
:1009F000B10460E081E00E94B10481E08093C8010D
:100A00005F980895A4E0B0E0E8E0F5E00C940208F7
:100A100085E091E09C838B831A8219821FB7F8943A
:100A200042E050E06DE070E0CE0101960E94300A95
:100A30008FE090E00E94400A082F62E0CE0101960C
:100A40000E94B80108130DC01FBF698180E00E9499
:100A5000B1046A8181E00E94B10482E08093C80100
:100A60000DC08B8189838C818A8342E0BE016F5FD8
:100A70007F4F8DE090E00E94CD01E6CF2496E4E028
:100A80000C941E081F920F920FB60F9211242F93F1
:100A90003F934F935F936F937F938F939F93AF9306
:100AA000BF93EF93FF938091B900887F803961F104
:100AB00098F4803731F140F4803619F1883609F125
:100AC000882309F461C066C08038F1F0883859F194
:100AD000883709F05FC015C0803BD1F140F4803AFF
:100AE00029F1883AA9F1883909F054C01CC0803C2A
:100AF00009F447C0883C09F444C0883B09F04AC067
:100B000029C01092F0013DC08091F0019091BB008E
:100B1000E82FF0E0EF50FE4F90838F5F8093F0015D
:100B2000803208F42EC00E94770034C00E9470000A
:100B3000E0911102F0911202309761F14091F001C1
:100B400061EF71E08091130290911402099522C027
:100B50001092150280911502E82FF0E0EA5EFD4F39
:100B600090819093BB008F5F809315029091360225
:100B7000891738F00E947700109236021092150201
:100B800009C00E94700006C08091BC008F70806D0B
:100B90008093BC00FF91EF91BF91AF919F918F9196
:100BA0007F916F915F914F913F912F910F900FBE69
:100BB0000F901F9018951F920F920FB60F9211244D
:100BC0008F939F93EF93FF9380915402E82FF0E06F
:100BD0009091C600EC5BFD4F90838F5F803108F0F1
:100BE00080E080935402FF91EF919F918F910F903D
:100BF0000FBE0F901F9018951F920F920FB60F9275
:100C000011242F933F934F935F936F937F938F9311
:100C10009F93AF93BF93EF93FF938091EE018F5F0C
:100C20008093EE019091EE018091ED01981307C041
:100C30000E94D300E091EB01F091EC010995FF9146
:100C4000EF91BF91AF919F918F917F916F915F9144
:100C50004F913F912F910F900FBE0F901F901895BD
:100C6000A8E4B0E0E6E3F6E00C94FB0728E288E1B4
:100C700090E00FB6F894A895809360000FBE209383
:100C800060000E94530081E080937E0087E08093A3
:100C90007A0080917A00806C80937A0080EC809357
:100CA0007C0080917A0086FDFCCF0CE310E00E946E
:100CB0003A0101501109D9F71FB7F8944CE050E000
:100CC00060E070E087E392E00E94300A8CE090E000
:100CD0000E94400A082F6CE087E392E00E94B8016E
:100CE000081308C01FBFE0910501F091060130977D
:100CF00099F413C0E3E5F1E0A7E3B2E081918D93AD
:100D000021E0EF35F207D1F74CE067E372E080E0D5
:100D100090E00E94CD01E6CF099510920B01579A01
:100D2000539A549A5F9A5B9A5C9860E085E00E94BF
:100D30007C04892B81F060E28AE00E947C04892B8C
:100D400051F060E080E00E947C04892B21F060E09B
:100D500081E00E947C0483E084BD8DE085BD10921B
:100D60006E0080E987BD16BC1092D101189902C0AF
:100D700082E001C081E08093C80184E392E029967B
:100D80009FAF8EAF29971A8219821B821C822696EA
:100D90001FAE269727961FAE27978EE093E090937D
:100DA000120280931102CE01019690931402809357
:100DB00013020E9453002FE088E190E00FB6F894F0
:100DC000A895809360000FBE2093600078948FEF09
:100DD0009FEF2CE2815090402040E1F700C00000DE
:100DE000A8953AE0D32E4FE0C42E5DEDB52E63E01A
:100DF000A62E00E418E375EFE72E74E0F72EA89511
:100E00000E943A019091C9018091C801981721F17F
:100E10008091C8018093C90166EA71E080E00E9478
:100E200012049090C90181E0981209C00E94D30079
:100E30000E94F5049092D0010E941F040DC0809181
:100E4000C901823049F41092D00167EB71E081E072
:100E50000E9412040E940205A89B72C0A89A809169
:100E6000D1018F5F8093D1018091D101823309F04C
:100E700067C01092D101A0913B02B0913C02409119
:100E8000E1015091E2018091370290913802489F30
:100E90009001499F300D589F300D11240E94E807A2
:100EA0002AE096958795779567952A95D1F770935F
:100EB000CB016093CA012091CA013091CB014091CE
:100EC000410250914202D49EC001D59E900D112442
:100ED0008217930768F08091CC018F5F8093CC01DB
:100EE0008091CC018F3F31F481E08093CD0102C02D
:100EF0001092CC018091CD01882361F05C988091A3
:100F0000CF01882319F08130B1F402C05B9A0BC085
:100F10005B980FC08091CF01882319F0813059F47C
:100F200006C05B9A5C9A81E08093CF0104C05B9815
:100F30005C981092CF018091D00181110E941F0412
:100F40008091C901823031F5189908C08091EF0174
:100F5000882309F454CF0E94D30051CF9091EF0120
:100F600091114DCFC092ED01B0928100A09280000E
:100F7000109389000093880080936F001092850081
:100F800010928400F092EC01E092EB0181E08093FA
:100F9000EF0135CF8091C901813009F030CF189928
:100FA0002ECF0E9402052BCFAA1BBB1B51E107C00D
:100FB000AA1FBB1FA617B70710F0A61BB70B881FE9
:100FC000991F5A95A9F780959095BC01CD01089578
:100FD000A29FB001B39FC001A39F01D0B29F700D2B
:100FE000811D1124911D08952F923F924F925F927F
:100FF0006F927F928F929F92AF92BF92CF92DF9229
:10100000EF92FF920F931F93CF93DF93CDB7DEB78D
:10101000CA1BDB0B0FB6F894DEBF0FBECDBF099421
:101020002A88398848885F846E847D848C849B8478
:10103000AA84B984C884DF80EE80FD800C811B8186
:10104000AA81B981CE0FD11D0FB6F894DEBF0FBEB5
:10105000CDBFED010895FB01DC0101900D92002050
:10106000E1F70895AEE0B0E0E8E3F8E00C940208A0
:101070000D891E8986E08C831A8309838FEF9FE791
:101080009E838D83CE014996AC016F89788DCE0108
:1010900001960E945408EF81F885E00FF11F10823D
:1010A0002E96E4E00C941E08ACE0B0E0EAE5F8E02F
:1010B0000C94F4077C016B018A01FC0117821682F3
:1010C000838181FFC6C188248394912C8C0E9D1E40
:1010D000F7019381F60193FD859193FF81916F0153
:1010E000882309F4B2C1853239F493FD859193FFC9
:1010F00081916F01853229F4B70190E00E947B0A4B
:10110000E7CF512C312C20E02032A8F48B3261F053
:1011100028F4803251F0833271F40BC08D3239F0F3
:10112000803349F4216028C02260246025C02860F3
:1011300023C0206121C027FD27C0382F30533A300B
:1011400078F426FF06C0FAE05F9E300D1124532E7E
:1011500013C08AE0389E300D1124332E20620CC05B
:101160008E3221F426FD71C1206406C08C3611F444
:10117000206802C0883641F4F60193FD859193FF03
:1011800081916F018111C0CF982F9554933018F041
:101190009052933028F40C5F1F4FFFE3F9830DC08A
:1011A000833631F0833771F0833509F05EC023C098
:1011B000F801808189830E5F1F4F44244394512C92
:1011C000540115C03801F2E06F0E711CF801A080C7
:1011D000B18026FF03C0652D70E002C06FEF7FEF86
:1011E000C5012C870E94700A2C0183012C856FE7B2
:1011F000262E222218C03801F2E06F0E711CF80171
:10120000A080B18026FF03C0652D70E002C06FEFA3
:101210007FEFC5012C870E94650A2C012C8550E8C0
:10122000252E222A830123FC1CC006C0B70180E2C0
:1012300090E00E947B0A3A94832D90E0481659066C
:10124000A8F30FC0F50127FC859127FE81915F016E
:10125000B70190E00E947B0A31103A94F1E04F1AF6
:1012600051084114510471F7EDC0843611F08936EC
:1012700041F5F80127FF07C0608171818281938168
:101280000C5F1F4F08C060817181882777FD8095B2
:10129000982F0E5F1F4F4FE6B42EB22297FF09C062
:1012A00090958095709561957F4F8F4F9F4FF0E897
:1012B000BF2A2AE030E0A4010E94A70AA82EA8189D
:1012C00043C0853731F43FEEB32EB2222AE030E03E
:1012D00024C099EFB92EB2228F36B9F020F48835A8
:1012E00009F0B3C00DC0803721F0883709F0ADC0D8
:1012F00002C020E1B22AB4FE0BC084E0B82A08C0C4
:1013000024FF09C0E6E0BE2A06C028E030E005C0A0
:1013100020E130E002C020E132E0F801B7FE07C072
:1013200060817181828193810C5F1F4F06C0608153
:10133000718180E090E00E5F1F4FA4010E94A70A18
:10134000A82EA818FFE7BF22B6FE0BC02B2D2E7FBC
:10135000A51450F4B4FE0AC0B2FC08C02B2D2E7E9A
:1013600005C07A2C2B2D03C07A2C01C0752C24FFCC
:101370000DC0FE01EA0DF11D8081803311F4297E3C
:1013800009C022FF06C07394739404C0822F86782C
:1013900009F0739423FD14C020FF0FC05A2C73145E
:1013A00060F4530C5718732C08C0B70180E290E02A
:1013B0002C870E947B0A73942C857314B0F304C0AD
:1013C000731410F4371801C0312C24FF12C0B70178
:1013D00080E390E02C870E947B0A2C8522FF1EC0B0
:1013E00021FF03C088E590E002C088E790E0B701E4
:1013F0000CC0822F867891F021FD02C080E201C0EE
:101400008BE227FD8DE2B70190E00E947B0A06C0C7
:10141000B70180E390E00E947B0A5A94A514C0F3C0
:10142000AA94F401EA0DF11DB701808190E00E94B9
:101430007B0AA110F5CF06C0B70180E290E00E94C0
:101440007B0A3A943110F8CF43CEF70126813781D9
:1014500002C02FEF3FEFC9012C96E2E10C94100877
:10146000DC01CB01FC01F999FECF06C0F2BDE1BD64
:10147000F89A319600B40D9241505040B8F7089553
:10148000F999FECF92BD81BDF89A992780B508954C
:10149000DC01CB0103C02D910E94530A4150504002
:1014A000D0F70895262FF999FECF1FBA92BD81BDBE
:1014B00020BD0FB6F894FA9AF99A0FBE01960895D6
:1014C0000E94520A272F0C94530AFC010590615088
:1014D00070400110D8F7809590958E0F9F1F08954A
:1014E000FC016150704001900110D8F780959095F3
:1014F0008E0F9F1F08950F931F93CF93DF938C013F
:10150000EB018B8181FD03C00FEF1FEF1AC082FF3B
:101510000DC02E813F818C819D812817390764F48D
:10152000E881F9810193F983E88306C0E885F985AC
:10153000802F0995892B41F78E819F8101969F838A
:101540008E83C801DF91CF911F910F910895FA0109
:10155000AA27283051F1203181F1E8946F936E7FF2
:101560006E5F7F4F8F4F9F4FAF4FB1E03ED0B4E0E3
:101570003CD0670F781F891F9A1FA11D680F791F24
:101580008A1F911DA11D6A0F711D811D911DA11D35
:1015900020D009F468943F912AE0269F1124301945
:1015A000305D3193DEF6CF010895462F4770405DE0
:1015B0004193B3E00FD0C9F7F6CF462F4F70405D8F
:1015C0004A3318F0495D31FD4052419302D0A9F7EA
:1015D000EACFB4E0A6959795879577956795BA95E4
:1015E000C9F700976105710508959B01AC010A2EAA
:1015F00006945795479537952795BA95C9F7620F81
:0E160000731F841F951FA01D0895F894FFCF3F
:10160E005F01020102BD00B6009C00000000000058
:10161E0000000000000000000000000000000000BC
:10162E0000000000000000000000000000000000AC
:10163E00000000000000000000000000000000009C
:10164E00000000000000000000000000000000008C
:10165E000201020B003A0CC6013A0CC60164004DA1
:10166E00434220002046756C6C79202043686172DD
:10167E0067656420002020202020202020202020AC
:10168E00202020202000203E3E2025347520206D75
:10169E0041203C3C20002020202025347520206D48
:1016AE00412020202000202A204D616E74612041AF
:1016BE00333030202A200020203E20537461727473
:0816CE00696E67203C2020003A
:00000001FF
