:100000000C943E000C945B000C945B000C947E05F9
:100010000C945B000C945B000C945B000C94D10579
:100020000C945B000C945B000C945B000C945B00E4
:100030000C945B000C945B000C9412050C945B0018
:100040000C945B000C945B000C94F2040C945B0029
:100050000C945B000C945B000C945B000C945B00B4
:100060000C940A060C945B004D076E075C07800732
:100070009307AD07CF07DF07F607BE0711241FBEA2
:10008000CFEFD4E0DEBFCDBF11E0A0E0B1E0EEEEF7
:10009000F2E102C005900D92A631B107D9F711E047
:1000A000A6E1B1E001C01D92AE3FB107E1F70E94A9
:1000B00088060C9475090C9400009091C00095FF7F
:1000C000FCCF8093C600089587E090E09093C50030
:1000D0008093C400E0ECF0E080818D7F808386E037
:1000E0008093C200E1ECF0E088E180838081806849
:1000F0008083089583B183FB882780F9809357011B
:100100000895809354011092530110925601109259
:1001100055011092B20083E08093B0008FE080938D
:10012000B10082E08093700088E48093B30008956A
:10013000E1EBF0E08081887F808310925401089584
:10014000459A449AECEBF0E0808185648083E9EB8A
:10015000F0E080818E7F808380818D7F80838AE044
:100160008093B8000895ECEBF0E080818F70806A96
:1001700080830895ECEBF0E080818F70806C808349
:100180000895ECEBF0E080818F70806880830895A3
:100190008091BC0087FFFCCF08958093BB00ECEBFF
:1001A000F0E080818F7080688083089590917C005A
:1001B000907C982B90937C0080917A00806480934F
:1001C0007A0080917A0086FDFCCF209178003091F2
:1001D0007900C901089550914F01409150018091DB
:1001E0003C0190913D0120914E01289FD001299F13
:1001F000B00D11249091510180915201392F20E0CE
:10020000282B0E94E3082AE09695879577956795B5
:100210002A95D1F7352F20E0242B41E02617370708
:1002200008F040E0842F0895AF92BF92DF92EF92E2
:10023000FF920F931F93CF93DF931F92CDB7DEB73B
:10024000182FD62EE42E042F0F5F3AE2F32EF82655
:10025000F0268AE279830E945D00802F0E945D0073
:10026000812F0E945D00AD2C7981B72E09C08501D8
:10027000F50181915F010E945D00F8018081F826FF
:100280008A2D8D198E1598F38F2D80680E945D0040
:100290000F90DF91CF911F910F91FF90EF90DF9022
:1002A000BF90AF90089580FF02C05C9801C05C9A37
:1002B00081FF02C05D9801C05D9A82FF02C05E9816
:1002C00001C05E9A83FF02C05F9808955F9A089507
:1002D0000F931F93CF93DF93C0913001D0913101E1
:1002E00080E00E94D6008C0F9D1F90933101809377
:1002F0003001C0913201D091330183E00E94D600D9
:100300008C0F9D1F9093330180933201C091340173
:10031000D091350181E00E94D6008C0F9D1F9093F3
:10032000350180933401C0913601D091370186E0C8
:100330000E94D6008C0F9D1F909337018093360149
:10034000C0913801D091390182E00E94D6008C0F13
:100350009D1F9093390180933801C0913A01D0914B
:100360003B0187E00E94D6008C0F9D1F90933B01BC
:1003700080933A0180912F01982F9F5F90932F01D6
:100380008C33E1F420E030E00CE310E0E901CC0F25
:10039000DD1FFE01E05DFE4F80819181B8010E946A
:1003A000EF08C45CDE4F79836883118210822F5F6F
:1003B0003F4F2630310551F710922F01DF91CF9139
:1003C0001F910F91089580E0E8E4F1E037E091910A
:1003D000892798E0282F220F87FF03C0822F8327C9
:1003E00001C0822F9150B1F791E0E335F90779F719
:1003F0000895CF930E94E301C82F4BE050E060E0E6
:1004000070E088E491E00E9458096C2F8BE090E046
:100410000E946209CF910895CF93CFB7F8940E94BC
:10042000F901CFBFCF9108958091BC008F70806D8E
:100430008093BC008091BC0084FFFCCF0895A1E0B4
:10044000B0E0E5E2F2E00C940D09182F6B01042FE7
:10045000E52EF22E9091BC009E7F9093BC000E94EE
:10046000B3000E94C800812F8E7F0E94CD000E94A1
:10047000C8008091B900883111F080E02EC0F601EB
:1004800080810E94CD000E94C8000E94B3000E949B
:10049000C800812F81600E94CD000E94C800809119
:1004A000B900803451F7C02EDE2C0F0D09C00E9418
:1004B000BA000E94C8008091BB00F60181936F01D1
:1004C000802F8C19823098F70E94C1000E94C800CA
:1004D0008091BB00F601808381E089830E94140231
:1004E0009091BC0091609093BC0089812196E8E0D6
:1004F0000C942909A1E0B0E0E0E8F2E00C941309C3
:10050000AB018E5E898321E0BE016F5F7F4F88E47F
:100510000E941F0221E030E0811102C020E030E0A3
:10052000C9012196E2E00C942F09A1E0B0E0EBE9CB
:10053000F2E00C9411098B019091BC009E7F909386
:10054000BC0089830E94B3000E94C80089818E7F0D
:100550000E94CD000E94C8008091B900883171F4DA
:10056000F80180810E94CD000E94C800F8018181BD
:100570000E94CD000E94C80081E001C080E0898314
:100580000E9414029091BC0091609093BC008981FC
:100590002196E4E00C942D09A2E0B0E0E2EDF2E057
:1005A0000C94130989836A83BE016F5F7F4F88E4CF
:1005B0000E94950290E02296E2E00C942F09A1E0BF
:1005C000B0E0E5EEF2E00C9412091982182F1E5EDD
:1005D000812F0E94CC02892B51F0BE016F5F7F4FAB
:1005E000812F0E947A0221E030E0892B11F420E073
:1005F00030E0C9012196E3E00C942E09A2E0B0E0BE
:10060000E4E0F3E00C940F09282FF62EE82EE69490
:10061000E694E694803110F5877001E010E002C0A6
:10062000000F111F8A95E2F71982BE016F5F7F4F9D
:100630008E2D2A830E947A0289812A81FF2019F057
:10064000682F602B03C0602F609568236817A9F09E
:100650008E2D2A830E94DF022A810FC0803131F45F
:10066000662311F0289A09C0289807C0813129F41F
:10067000662311F0299A01C02998822F877021E002
:1006800030E001C0220F8A95EAF7EE2DF0E0E85B3A
:10069000FE4F8081FF2019F0822B808303C02095BC
:1006A000282320832296E6E00C942B09CF93DF9336
:1006B000D82FC62F823018F40E94DF020AC060FFD4
:1006C00002C0289A01C02898C1FF02C0299A01C01F
:1006D0002998ED2FF0E0E85BFE4FC083DF91CF91CA
:1006E0000895FF920F931F93CF93DF9380E00E94B2
:1006F0005301C0E0D0E0F12C01E010E098010C2E95
:1007000001C0220F0A94EAF7F22A8F2D0E945301AA
:1007100081E00E94810001C0A89580915301882347
:10072000D9F32196C430D10549F780E00E945301E6
:1007300061E080E00E94560360E081E00E94560381
:1007400060E082E00E9456032A9810922E01CDB7F5
:10075000DEB7E5E00C942C09A0E1B0E0E2EBF3E0B9
:100760000C940F09FB014150833009F4B7C030F4F9
:10077000813069F0823009F02BC1A2C0853009F4C4
:10078000B7C008F4AEC0863009F022C1E7C01A82B3
:10079000198281E88093010160E071E080E90E94A4
:1007A0009502188A22E0AE014F5F5F4FBE01605F85
:1007B0007F4F80E90E941F0239812A8122952F7084
:1007C00040E1349FC0011124822B37FD906F9E873A
:1007D0008F8742E0BE01625F7F4F87E00E94140175
:1007E000A0913C01B0913D0140913E0150913F01EB
:1007F0002091400130914101E0914201F09143018B
:1008000060914401709145018091460190914701AA
:10081000A9834A832B83EC83A6E056954795AA9536
:10082000E1F74C7055275B2F5370542BB4E036958D
:100830002795BA95E1F720733327522BF695E79564
:10084000F695E795E07C5E2B5D836E838F8336E0C3
:10085000969587953A95E1F78C709927272F237005
:10086000282B89B182FB882780F94B99826030E17F
:10087000839FC0011124822B8887188ABE01605F84
:100880007F4F80E00E947A0288898987188ABE019A
:10089000605F7F4F81E00E947A0288898A8783B1F6
:1008A0008170199982608B87809156018C87809125
:1008B0002E018D874DE0BE016F5F7F4F81E00BC041
:1008C000423009F088C0618180810E94FE0240E0D0
:1008D00060E070E082E00E9414017DC00E9471031C
:1008E0007AC00E940C0240E060E070E084E0F3CF48
:1008F000423009F06AC0218181E090E0008002C0AE
:10090000880F991F0A94E2F799278230910581F0A8
:100910001CF40197F1F406C08430910579F0089732
:10092000C1F412C0222311F05C9813C05C9A11C06C
:10093000222311F05D980DC05D9A0BC0222311F0A7
:100940005E9807C05E9A05C0222311F05F9801C02F
:100950005F9A40E060E070E085E033C04330A8F18A
:1009600060816B3090F501810C3078F580E090E08B
:1009700020E030E070E010E0E60FF71F14C0EFB6A3
:10098000F894DF01A80FB91F1296FC90DA01A85B5A
:10099000BE4F4C91F41203C0EFBE019604C0FC920E
:1009A00021E030E0F9CFAC01460F571F4017510747
:1009B00034F3232B11F00E940C0240E060E070E061
:1009C00086E00E94140121E001C020E030E005C073
:1009D00020E030E002C021E030E0C9016096E6E0AE
:1009E0000C942B091F920F920FB60F9211248F9324
:1009F0009F93EF93FF938091FC01E82FF0E090919B
:100A0000C600E458FE4F90838F5F87FD80E080939F
:100A1000FC01FF91EF919F918F910F900FBE0F906E
:100A20001F9018951F920F920FB60F921124DF920C
:100A3000EF92FF920F931F932F933F934F935F93E8
:100A40006F937F938F939F93AF93BF93CF93DF93D6
:100A5000EF93FF9300E010E0E12CF12C45E0D42E61
:100A6000D09EE001D19ED00D1124CA5EDE4F888158
:100A70009981892B99F08FEFE81AF80A8B818150C0
:100A80008B8381110BC0E881F98109958C818823C2
:100A900019F01982188202C08A818B830F5F1F4F61
:100AA00004301105E9F6EF2819F485B58A7F85BD74
:100AB000FF91EF91DF91CF91BF91AF919F918F9176
:100AC0007F916F915F914F913F912F911F910F9166
:100AD000FF90EF90DF900F900FBE0F901F90189532
:100AE0002398E8E6F0E0808181608083EBE6F0E027
:100AF0008081886080830E947A0008951F920F92FF
:100B00000FB60F9211242F933F934F935F938F93C0
:100B10009F93EF93FF9380E090E045E0489FF001C2
:100B2000499FF00D1124EA5EFE4F208131812A5742
:100B3000304019F41182108204C00196843091056E
:100B400069F780E090E045E0489FF001499FF00D93
:100B50001124EA5EFE4F20813181232B89F48AE73C
:100B600090E09183808384E68283838381E0848321
:100B700085B5857049F416BC85B5856085BD04C012
:100B800001968430910501F7FF91EF919F918F912C
:100B90005F914F913F912F910F900FBE0F901F903B
:100BA00018951F920F920FB60F9211242F933F9317
:100BB0004F935F936F937F938F939F93AF93BF9365
:100BC000EF93FF93809155018F5F80935501843699
:100BD00081F410925501809156018F5F80935601E8
:100BE00090915401891305C081E0809353010E94C4
:100BF0009800FF91EF91BF91AF919F918F917F915D
:100C00006F915F914F913F912F910F900FBE0F9079
:100C10001F9018951F920F920FB60F9211242F93C9
:100C20003F934F935F936F937F938F939F93AF9374
:100C3000BF93EF93FF938091B900887F803941F192
:100C400098F4803711F140F48036F9F08836E9F0F5
:100C5000882309F446C04BC08038D1F0883839F178
:100C6000883709F044C011C0803B21F138F4803A44
:100C7000A9F1883AF9F08839D1F519C0803C71F1B1
:100C8000883C61F1883B99F517C01092580126C045
:100C9000809158019091BB00E82FF0E0E75AFE4F99
:100CA00090838F5F80935801803208F417C00E94B0
:100CB000C1001DC010927901809179011092BB0092
:100CC0008F5F8093790190917A01891738F00E94A3
:100CD000C10010927A011092790109C00E94BA00F5
:100CE00006C08091BC008F70806D8093BC00FF9126
:100CF000EF91BF91AF919F918F917F916F915F9194
:100D00004F913F912F910F900FBE0F901F9018950C
:100D1000A8E1B0E0EEE8F6E00C94080928E288E1EA
:100D200090E00FB6F894A895809360000FBE2093D2
:100D300060001FB7F8944BE050E060E070E088E49A
:100D400091E00E9440098BE090E00E945009082F3A
:100D50000E94E301081325C01FBF16BC83E084BDB9
:100D600088E085BD82E080936E0080E987BD549A5B
:100D7000559A569A579A80E00E9453010E94640047
:100D80000E94700581E080937E0087E080937A0066
:100D900080917A00806C80937A0080EC80937C0054
:100DA0000DC0E5E0F1E0A8E4B1E081918D9381E030
:100DB000E031F807D1F70E94F901CECF80917A0097
:100DC00086FDFCCF0CE310E00E9468010150110980
:100DD000D9F70E94A00081E08093010160E071E0FA
:100DE00080E90E9495020E94A00060E085E00E94D8
:100DF000CC02892B81F060E28AE00E94CC02892B30
:100E000051F060E080E00E94CC02892B21F060E08C
:100E100081E00E94CC02209A2898219A2998229A4F
:100E200010922E0178942FE088E190E00FB6F894AC
:100E3000A895809360000FBE209360008CEA93E039
:100E4000988F8F8B1A8219821B821C821D8A1E8AA0
:100E50000E94640043E062E071E080E00E941401BF
:100E6000DD24D39457E0B52E65E0C62E79E0A72E99
:100E7000E6E09E2EF3E08F2E03E010E0A4E0EA2EE1
:100E8000F12CA895E0912E01F0E0EA30F10508F090
:100E9000C8C0EC5CFF4F0C943A098091570188233D
:100EA00009F4BFC084E00E9481002A9A61E080E0DA
:100EB0000E94FE0282E034C080915301882309F42D
:100EC000B0C084E00E94810088E00E94530161E08C
:100ED0008EE00E94FE02D0922E01A3C080915301A9
:100EE000882309F49EC084E00E94810084E00E946F
:100EF000530161E088E00E94FE0280922E0191C0C1
:100F000080915301882309F48CC084E00E94810001
:100F100082E00E94530161E08FE00E94FE0284E0C3
:100F200080932E017EC080915301882309F479C0FB
:100F300081E00E9453016091480180E00E945603C5
:100F40006091490181E00E94560360914A0182E06C
:100F50000E945603C0922E0164C0809157018823DD
:100F600039F00E94EB0081115CC090922E0125C0E7
:100F700088E20E948100A0922E0153C0809153010B
:100F8000882319F00E9471034CC080915701882377
:100F900009F447C00E94980010922E0142C00E949E
:100FA000EB00882321F0C0922E010E9498008091CE
:100FB00053018823B1F1B0922E018AE030C08091B4
:100FC0005301882371F160914B0180E00E94560328
:100FD00060914C0181E00E94560360914D0182E0D6
:100FE0000E94560388E080932E0119C0809153011E
:100FF0008823B9F089B1829581708D254D9B8260DF
:101000004E9B84604F9B886081FF05C080E00E94FA
:10101000530188E004C082E00E94530181E00E94F5
:10102000810080912E01882309F42BCF0E94680152
:101030008091C00083FF06C040E060E070E083EE76
:101040000E9414018091FD019091FC01981709F410
:1010500018CFF894E82FF0E0E458FE4F20818F5F1E
:1010600087FD80E08093FD01789489819A818230A8
:10107000910599F01CF4892B41F084C083309105CF
:1010800099F0049709F07EC016C02A3209F07DC09D
:1010900082E090E09A8389832BC02B838E898227FC
:1010A0008E8B1A8309838CC02C838E8982278E8B2A
:1010B000FA82E98285C04D894F3009F469C0E5E0C4
:1010C000F0E0EC0FFD1FE40FF11D20834F5F4D8B0F
:1010D0009B818E8949130BC08068E4E0F0E0EC0F3F
:1010E000FD1FE40FF11D9081891355C065C02827AD
:1010F0002E8B66C043E062E071E080E03AC08D3F35
:1011000099F47FB6F894F999FECF60E27FED8EEF07
:1011100091E00E94700980E280937B017FBE40E0F5
:1011200060E070E08DEF25C08F3F89F440E060E023
:1011300070E00E94140128E088E190E00FB6F89476
:10114000A895809360000FBE20936000FFCF8E3F74
:1011500021F444E060E171E00CC0EF89F88DBE013C
:101160006B5F7F4F0995892B31F440E060E070E0C0
:1011700080EE0E9414011A8219821B821C821D8A31
:101180001E8A1EC086EE90E008C081EE90E005C089
:1011900084EE90E002C085EE90E0009709F471CEF5
:1011A00040E060E070E00E9414011A8219821B8204
:1011B0001C821D8A1E8A65CE8C818111A0CF9ACF98
:1011C00080E090E0EACFA29FB001B39FC001A39F4F
:1011D00001D0B29F700D811D1124911D0895AA1B8D
:1011E000BB1B51E107C0AA1FBB1FA617B70710F012
:1011F000A61BB70B881F991F5A95A9F78095909544
:10120000BC01CD0108952F923F924F925F926F9251
:101210007F928F929F92AF92BF92CF92DF92EF9286
:10122000FF920F931F93CF93DF93CDB7DEB7CA1B07
:10123000DB0B0FB6F894DEBF0FBECDBF09942A8832
:10124000398848885F846E847D848C849B84AA84DA
:10125000B984C884DF80EE80FD800C811B81AA8167
:10126000B981CE0FD11D0FB6F894DEBF0FBECDBF32
:10127000ED010895EE0FFF1F0590F491E02D099404
:10128000DC01CB01FC01F999FECF06C0F2BDE1BD46
:10129000F89A319600B40D9241505040B8F7089535
:1012A000F999FECF92BD81BDF89A992780B508952E
:1012B000DC01CB0103C02D910E94630941505040D5
:1012C000D0F70895262FF999FECF1FBA92BD81BDA0
:1012D00020BD0FB6F894FA9AF99A0FBE01960895B8
:0E12E0000E946209272F0C946309F894FFCF37
:1012EE0001000203000000000100000B59D80C3A67
:0612FE005043544C0000B7
:00000001FF
