:100000000C9434000C9451000C9451000C94510049
:100010000C9451000C9451000C9451000C9451001C
:100020000C9451000C9451000C9451000C9451000C
:100030000C9451000C9451000C9451000C945100FC
:100040000C948D000C9451000C94EC000C94510015
:100050000C9451000C9451000C9451000C945100DC
:100060000C9451000C94510011241FBECFEFD4E02A
:10007000DEBFCDBF11E0A0E0B1E0EAEEF6E002C0E5
:1000800005900D92A830B107D9F711E0A8E0B1E0D2
:1000900001C01D92A432B107E1F70E94C7010C9480
:1000A00073030C9400000F931F93CF93DF9345309D
:1000B00078F5E82FF92F20E030E0062F10E026C079
:1000C0008081B801022E02C0759567950A94E2F707
:1000D00060FD03C060E070E002C060E071E090E0AD
:1000E00089589F4F860F971FBC0163707070E9019C
:1000F000C55FDE4F6C8364E070E00E94150370956D
:1001000061957F4F68832F5F3F4F31962417C0F270
:10011000DF91CF911F910F9108951F920F920FB60B
:100120000F9211248F93809113018823C9F481E0E9
:100130008093130180EF84BD8093B00084E085BD7F
:1001400086E08093B10080910C0187BD80910D0104
:1001500088BD80910B018093B30080910E0117C080
:10016000809113018130B1F482E08093130180EA21
:1001700084BD8093B0008091100187BD80911101F2
:1001800088BD80910F018093B3008091120180930C
:10019000B40007C01092130185E085BD87E080930D
:1001A000B1008F910F900FBE0F901F9018959091F6
:1001B0007C00907C982B90937C0080917A008064E6
:1001C00080937A0080917A0086FDFCCF20917800A0
:1001D00030917900C90108951F920F920FB60F92C6
:1001E00011248F93EF93FF93E09108018091C60053
:1001F000F0E0EC5EFE4F8083809108018F5F80937A
:10020000080180910801803110F010920801FF91DF
:10021000EF918F910F900FBE0F901F901895242F84
:100220002F5F9091C00095FFFCCF9AE29093C6009B
:100230009091C00095FFFCCF2093C6009091C00024
:1002400095FFFCCF9AE2982792278093C600E62F6D
:10025000F72F80E00AC020813091C00035FFFCCF2D
:100260002093C60092278F5F31968417A0F3809168
:10027000C00085FFFCCF90689093C6000895A8E069
:10028000B0E0E5E4F1E00C942E0380E00E94D7009A
:100290004C0181E00E94D7006C0182E00E94D700EF
:1002A0007C0183E00E94D7008C0184E00E94D7008B
:1002B0005C0185E00E94D700AC0123B1227011F0EF
:1002C0002D9A01C02D988982CA82EB820C83C601C7
:1002D000F6E096958795FA95E1F7982F9C70892D11
:1002E0008370982BB701E4E076956795EA95E1F77E
:1002F000862F8073982B1695079516950795007C89
:10030000902B9D83AE824F839B2D937086E05695F4
:1003100047958A95E1F74C70942B2295220F220F76
:10032000207C292B288781E0BE016F5F7F4F48E04A
:100330000E940F012896ECE00C944A0310920A01E7
:100340000895FB01823051F0833089F0813019F03B
:1003500020E030E01AC00E943F0115C080818093E8
:100360000A0180FF02C0289A0EC028980CC0425093
:10037000CB01019660810E94530083E060E070E051
:1003800040E00E940F0121E030E0C90108954F9242
:100390005F927F928F929F92AF92BF92CF92DF92A5
:1003A000EF92FF920F931F93DF93CF93CDB7DEB7FA
:1003B0006E970FB6F894DEBF0FBECDBF2CE088E17C
:1003C00090E00FB6F894A895809360000FBE20933C
:1003D000600082E290E09093C5008093C400809119
:1003E000C00082608093C00086E08093C20088E1F4
:1003F0008093C1008091C10080688093C1008FEF1D
:1004000089838A838B838C83209A10921301CE0177
:10041000019660E044E00E94530080EA84BD80932E
:10042000B00083E085BD84E08093B10017BC18BCA8
:100430001092B3001092B4008AB180668AB9539AC0
:10044000239A81E080936E00289A80937E0087E053
:1004500080937A0080917A00806C80937A0080EC9F
:1004600080937C0080917A0086FDFCCF299A259AA2
:1004700081EA91E09C8F8B8F8EE991E09E8F8D8F2A
:100480001E821D821F821886198E1A8EDE01119619
:10049000E5E0F1E083E001900D928150E1F7BE01CB
:1004A0006F5F7F4F43E00E940F01789483E0882EB6
:1004B000912C04E0A02EB12C19E0E12EF12CEC0ED1
:1004C000FD1EB8E0CB2ED12CCC0EDD1E8E010F5FB1
:1004D0001F4FA2E04A2E512CA895909108018091BF
:1004E0000901981709F490C0F894E0910901F0E02F
:1004F000EC5EFE4F7080809109018F5F809309014F
:1005000080910901803110F0109209017894809156
:10051000C00083FF06C083EE60E070E040E00E9410
:100520000F018D819E8182309105E9F08330910524
:100530001CF4009751F006C083309105D9F0843047
:100540009105F9F086EE90E054C08AE2781641F009
:10055000ED8DFE8D309709F0099581EE90E049C050
:100560005E824D8229C07F828A8D87258A8F9E82F6
:100570008D824AC078868A8D87258A8FBE82AD8219
:1005800043C0498D4F3019F484EE90E032C0F7013A
:10059000E40FF11D70824F5F498F9F818A8D49174B
:1005A00051F48068F601E40FF11D90818917C9F1BB
:1005B00085EE90E01EC078267A8E26C0D801E5E050
:1005C000F1E083E001900D928150E1F7B80143E042
:1005D00013C08F3F09F4FFCF8E3F21F460E071E03C
:1005E00044E00AC0EB8DFC8DB7010995009731F40A
:1005F00080EE60E070E040E00E940F011E821D82EC
:100600001F821886198E1A8E83B1827011F02D9A6E
:1006100001C02D9880910A0181FF5ECF0E943F01A9
:100620005BCF88858823A9F6C9CF97FB092E0726BB
:100630000AD077FD04D043D006D000201AF470957C
:1006400061957F4F0895F6F7909581959F4F089596
:100650002F923F924F925F926F927F928F929F92D2
:10066000AF92BF92CF92DF92EF92FF920F931F93C0
:10067000CF93DF93CDB7DEB7CA1BDB0B0FB6F89471
:10068000DEBF0FBECDBF09942A88398848885F84B1
:100690006E847D848C849B84AA84B984C884DF8022
:1006A000EE80FD800C811B81AA81B981CE0FD11D06
:1006B0000FB6F894DEBF0FBECDBFED010895AA1BA3
:1006C000BB1B51E107C0AA1FBB1FA617B70710F03D
:1006D000A61BB70B881F991F5A95A9F7809590956F
:0A06E000BC01CD010895F894FFCF8E
:0806EA005343525400020102C7
:00000001FF
