:100000000C9434000C9451000C9451000C94510049
:100010000C9451000C9451000C9451000C9451001C
:100020000C9451000C9451000C9451000C9451000C
:100030000C9451000C9451000C9451000C945100FC
:100040000C94AF010C9451000C94FE010C945100DF
:100050000C9451000C9451000C9451000C945100DC
:100060000C9451000C94510011241FBECFEFD4E02A
:10007000DEBFCDBF12E0A0E0B1E0E8E7FEE002C0E5
:1000800005900D92A031B107D9F712E0A0E1B2E0DE
:1000900001C01D92AD32B107E1F70E9486050C94B4
:1000A0003A070C94000090917C00907C982B9093E0
:1000B0007C0080917A00806480937A0080917A003D
:1000C00086FDFCCF809178009091790008958FE0B3
:1000D00090E09093C5008093C400E0ECF0E0808154
:1000E0008D7F808386E08093C200E1ECF0E088E1C0
:1000F000808380818068808308959091C00095FFFF
:10010000FCCF8093C6000895AF92BF92DF92EF922A
:10011000FF920F931F93DF93CF930F92CDB7DEB76C
:10012000082FF62ED42E142F1F5F8AE2E82EE02629
:10013000E1268AE279830E947D00812F0E947D0062
:10014000802F0E947D000F2D7981172F09C0580143
:10015000F80181918F010E947D00F5018081E826E0
:10016000802F8F198D1598F38E2D80680E947D0049
:100170000F90CF91DF911F910F91FF90EF90DF9043
:10018000BF90AF900895AF92BF92CF92DF92FF924F
:100190000F931F93CF93DF93F42E8C01C0E0D0E038
:1001A000C62EDD2494E0A92EB12C39C0F80121918E
:1001B0008F0130E029583F4FC6010C2E02C09595A3
:1001C00087950A94E2F780FF03C060E071E002C007
:1001D00060E070E0620F731F882777FD8095982F8D
:1001E0000E9424032AEF3DEE4BE65FE30E942102CA
:1001F000462F572F682F792FCB01BA010E949D03FC
:10020000DC01CB01B5010E94C906FE01EC5EFD4F89
:10021000848388279927861B970B80832196CF1587
:1002200028F2DF91CF911F910F91FF90DF90CF9037
:10023000BF90AF90089523B183B190E08470907027
:1002400030E022703070822B932B95958795882310
:1002500011F02D9A08952D980895A8E0B0E0E3E3F9
:10026000F1E00C94E00680E00E9453006C0181E014
:100270000E9453008C0182E00E9453007C0183E0C5
:100280000E9453005C0184E00E945300982E892E46
:1002900085E00E9453003C01C9820A83EB82AC8254
:1002A00056E0169507955A95E1F70C708D2D8370E1
:1002B000082BC70164E0969587956A95E1F78073EE
:1002C000082BC5019695879596958795807C082B78
:1002D0000D839E826F820E941B01982D93708295E0
:1002E000880F880F807C892B9301E6E0369527954F
:1002F000EA95E1F72C70822B888781E0BE016F5F61
:100300007F4F48E00E9484002896EEE00C94FC06A3
:10031000FB01823039F0833071F08130E9F40E94C2
:100320002D0117C080818093130280FF02C0289A9C
:1003300010C028980EC060814250453020F4CF0193
:1003400001960E94C30083E060E070E040E00E94FC
:10035000840081E090E0089580E090E008951F928D
:100360000F920FB60F9211248F9380911C02882355
:10037000C9F481E080931C0280EF84BD8093B000BB
:1003800084E085BD86E08093B1008091150287BD31
:100390008091160288BD809114028093B3008091F1
:1003A00017021CC080911C028130D9F482E0809336
:1003B0001C0280EA84BD8093B00083E085BD84E0A8
:1003C0008093B1008091190287BD80911A0288BD87
:1003D000809118028093B30080911B028093B40037
:1003E00007C010921C0285E085BD87E08093B100B4
:1003F0008F910F900FBE0F901F9018951F920F9224
:100400000FB60F9211248F93EF93FF93E091110297
:100410008091C600F0E0E35EFD4F80838091110281
:100420008F5F8093110280911102803110F0109241
:100430001102FF91EF918F910F900FBE0F901F90BF
:100440001895A0E2B0E0E7E2F2E00C94DE06DC01F1
:10045000CB018D839E83AF83B88729833A834B83F7
:100460005C83CE010596BE01675E7F4F0E941D052D
:10047000CE010196BE016F5E7F4F0E941D05998DD2
:10048000923078F089898230C0F0943019F482304B
:1004900041F4CCC0843019F4923079F4C7C0923062
:1004A00051F481E02A8D9A89291709F480E08A8F16
:1004B000CE014996BDC0823051F481E02A8D9A89DF
:1004C000291709F480E08A8BCE014196B1C04D8C8A
:1004D0005E8C6F8C78A00D891E892F89388DE0E2A3
:1004E000F0E040E050E060E070E08824992454019E
:1004F000CC24DD247601C201817090700097D9F080
:10050000C00ED11EE21EF31EDB01CA01880D991D2B
:10051000AA1DBB1D41E050E060E070E0C016D106AE
:10052000E206F30620F040E050E060E070E0480FA3
:10053000591F6A1F7B1F880C991CAA1CBB1C37FF04
:1005400008C081E090E0A0E0B0E0882A992AAA2AB9
:10055000BB2A000F111F221F331F769467945794F4
:100560004794319741F68B8D9C8D2B893C89820F66
:10057000931F02969C878B8781E02A8D9A89291781
:1005800009F480E08A872B853C8517C0CA018170F9
:100590009070009761F0F694E794D794C79480E048
:1005A00090E0A0E0B0E8C82AD92AEA2AFB2A76958A
:1005B0006795579547952F5F3F4F77FDE7CFC90167
:1005C0000BC0440F551F661F771FF7FC4160CC0C12
:1005D000DD1CEE1CFF1C01974030A0E05A07A0E094
:1005E0006A07A0E47A0768F38B879C87DB01CA015E
:1005F0008F779070A070B07080349105A105B1051F
:1006000061F447FD0AC0C114D104E104F10429F0EA
:10061000405C5F4F6F4F7F4F40784D875E876F879D
:10062000788B83E08987CE01099602C088E091E04B
:100630000E944304462F572F682F792FCB01BA0110
:10064000A096E0E10C94FA06CF92DF92EF92FF922F
:10065000DF93CF93CDB7DEB728970FB6F894DEBF00
:100660000FBECDBF6B017C0183E08983D701C6013A
:100670008827B7FD83959927AA27BB27282F8A8328
:10068000C114D104E104F10419F482E0898337C074
:100690008EE190E09C838B83222389F080E0C81652
:1006A00080E0D80680E0E80680E8F80669F1F0947A
:1006B000E094D094C094C11CD11CE11CF11CCD82EB
:1006C000DE82EF82F886C701B6010E94EF039C012B
:1006D000215030401216130694F4022E04C0CC0CA4
:1006E000DD1CEE1CFF1C0A94D2F7CD82DE82EF8265
:1006F000F8868EE190E0821B930B9C838B83CE0166
:1007000001960E94430404C060E070E080E09FEC2A
:10071000382F292F862F972FA32FB22FBC01CD0161
:1007200028960FB6F894DEBF0FBECDBFCF91DF91F4
:10073000FF90EF90DF90CF900895ACE0B0E0E3EA57
:10074000F3E00C94EA06DC01CB0189839A83AB8346
:10075000BC83CE010196BE016B5F7F4F0E941D05D9
:100760008D81823069F1823058F1843039F02F81E7
:10077000388537FD25C02F31310544F08E8188231F
:1007800021F100E010E020E030E823C08EE190E0AD
:10079000821B930B09851A852B853C8504C03695F1
:1007A0002795179507958A95D2F78E81882389F02A
:1007B00030952095109501951F4F2F4F3F4F09C041
:1007C00000E010E020E030E004C00FEF1FEF2FEF5B
:1007D0003FE7B801C9012C96E4E00C940607CF92DC
:1007E000DF92EF92FF920F931F938B019C010030D9
:1007F00080E0180781E0280780E0380758F40F3FB1
:1008000011052105310509F090F480E090E0A0E0A9
:10081000B0E016C00030E0E01E07E0E02E07E1E0A7
:100820003E0750F480E190E0A0E0B0E009C088E02D
:1008300090E0A0E0B0E004C088E190E0A0E0B0E08B
:1008400040E250E060E070E0481B590B6A0B7B0B04
:100850006801790104C0F694E794D794C7948A9507
:10086000D2F7D701C601805F9E4FFC018081481BF3
:10087000510961097109CA011F910F91FF90EF9011
:10088000DF90CF900895CF92DF92EF92FF920F9377
:100890001F93DC0114964D915D916D917C9117979A
:1008A0001196EC9111978C91823020F460618FEF5A
:1008B00090E0A8C0843009F49FC0823009F496C04B
:1008C000411551056105710509F493C012968D918A
:1008D0009C9113972FEF823892070CF05BC022E8AF
:1008E0003FEF281B390B2A3131056CF56A017B017A
:1008F000022E04C0F694E794D794C7940A94D2F7D2
:1009000081E090E0A0E0B0E004C0880F991FAA1F2A
:10091000BB1F2A95D2F70197A109B109842395231A
:10092000A623B72341E050E060E070E00097A10506
:10093000B10521F440E050E060E070E04C295D2911
:100940006E297F2904C040E050E060E070E0DB01E8
:10095000CA018F779070A070B07080349105A105A6
:10096000B10539F447FF09C0405C5F4F6F4F7F4FBF
:1009700004C0415C5F4F6F4F7F4F81E090E040309B
:1009800020E0520720E0620720E4720738F580E09B
:1009900090E024C0803891057CF58A019B010F7797
:1009A000107020703070003411052105310539F4C4
:1009B00047FF09C0405C5F4F6F4F7F4F04C0415CF1
:1009C0005F4F6F4F7F4F77FD03C081589F4F06C029
:1009D000769567955795479580589F4F97E0769500
:1009E0006795579547959A95D1F70CC080E090E0B0
:1009F00005C080E090E006C08FEF90E040E050E05E
:100A000060E070E0982F979599279795A62FAF777C
:100A1000E795EE27E79586953A2F392B282F2E2B31
:100A2000842F952FA32FB22FBC01CD011F910F91C1
:100A3000FF90EF90DF90CF900895DC01FB014C9187
:100A400011965C91119712968C911297682F6F777F
:100A500070E0982F991F9927991F13962C9113973F
:100A6000822F880F892B90E0221F2227221F2183AB
:100A7000009739F5411551056105710511F482E0C2
:100A800029C082E89FEF9383828327E0440F551F9C
:100A9000661F771F2A95D1F783E0808309C0440F32
:100AA000551F661F771F82819381019793838283ED
:100AB000403080E0580780E0680780E4780778F3EA
:100AC00020C08F3F910579F44115510561057105ED
:100AD00019F484E08083089564FF03C081E080837B
:100AE00010C010820EC08F5790409383828383E0A2
:100AF000808387E0440F551F661F771F8A95D1F7C3
:100B0000706444835583668377830895ACE1B0E0D5
:100B1000ECE8F5E00C94E4062CE088E190E00FB6F8
:100B2000F894A895809360000FBE209360000E9407
:100B300067008FEF89838A838B838C83209A10923E
:100B40001C02CE01019660E044E00E94C30080EAEE
:100B500084BD8093B00083E085BD84E08093B100C4
:100B600017BC18BC1092B3001092B4008AB1806612
:100B70008AB9539A239A81E080936E00289A8093D1
:100B80007E0087E080937A0080917A00806C809369
:100B90007A0080EC80937C0080917A0086FDFCCF07
:100BA00085B1866085B9259A88E891E09C8F8B8F06
:100BB0001E821D821F821886198E1A8E0E9467005F
:100BC00080E065E071E043E00E9484007894F3E007
:100BD000EF2EF12CA4E0CA2ED12C00E2B2E0AB2E15
:100BE000B12CA8959091110280911002981709F4E8
:100BF000C2C0F894E0911002F0E0E35EFD4F108176
:100C0000809110028F5F80931002809110028031DA
:100C100010F01092100278948091C00083FF06C0FB
:100C200083EE60E070E040E00E9484008D819E8150
:100C300082309105A1F0833091051CF4009749F0B2
:100C400082C08330910591F08430910509F07BC01A
:100C500014C01A3209F07AC0BE82AD822CC01F8344
:100C60008A8D81278A8FFE82ED826AC018878A8DDD
:100C700081278A8FDE82CD8263C0498D4F3009F48F
:100C800068C0E9E0F0E0EC0FFD1FE40FF11D1083F8
:100C90004F5F498F9F818A8D491761F48068E8E032
:100CA000F0E0EC0FFD1FE40FF11D9081891709F0B2
:100CB00053C06AC018271A8F43C080E065E071E016
:100CC00043E036C08D3F79F41FB7F894F999FECF11
:100CD0008EEF91E060E27FED0E9427070093120201
:100CE0001FBF8DEF22C08F3F89F460E070E040E0CD
:100CF0000E94840028E088E190E00FB6F894A8955F
:100D0000809360000FBE20936000FFCF8E3F21F4E0
:100D100060E071E044E00CC0EB8DFC8DBE01675FCC
:100D20007F4F0995009731F480EE60E070E040E07D
:100D30000E9484001E821D821F821886198E1A8EC0
:100D400080E090E00BC086EE90E008C081EE90E07D
:100D500005C084EE90E002C085EE90E0009759F067
:100D600060E070E040E00E9484001E821D821F82CD
:100D70001886198E1A8E0E941B018091130281FF22
:100D800030CF0E942D012DCF8885882309F09ACF7E
:100D900094CF97FB092E07260AD077FD04D043D0C5
:100DA00006D000201AF4709561957F4F0895F6F7EC
:100DB000909581959F4F08952F923F924F925F9209
:100DC0006F927F928F929F92AF92BF92CF92DF925B
:100DD000EF92FF920F931F93CF93DF93CDB7DEB7C0
:100DE000CA1BDB0B0FB6F894DEBF0FBECDBF099454
:100DF0002A88398848885F846E847D848C849B84AB
:100E0000AA84B984C884DF80EE80FD800C811B81B8
:100E1000AA81B981CE0FD11D0FB6F894DEBF0FBEE7
:100E2000CDBFED010895AA1BBB1B51E107C0AA1F4E
:100E3000BB1FA617B70710F0A61BB70B881F991F7B
:100E40005A95A9F780959095BC01CD0108950E940F
:100E50002C07272F0C942D07262FF999FECF1FBAA8
:100E600092BD81BD20BD0FB6F894FA9AF99A0FBED3
:080E700001960895F894FFCFEC
:100E7800534352540003010000000000000000002A
:100E88000001020203030303040404040404040429
:100E980005050505050505050505050505050505FA
:100EA80006060606060606060606060606060606DA
:100EB80006060606060606060606060606060606CA
:100EC80007070707070707070707070707070707AA
:100ED800070707070707070707070707070707079A
:100EE800070707070707070707070707070707078A
:100EF800070707070707070707070707070707077A
:100F08000808080808080808080808080808080859
:100F18000808080808080808080808080808080849
:100F28000808080808080808080808080808080839
:100F38000808080808080808080808080808080829
:100F48000808080808080808080808080808080819
:100F58000808080808080808080808080808080809
:100F680008080808080808080808080808080808F9
:100F780008080808080808080808080808080808E9
:00000001FF
